{"contracts/contract.sol":{"contractCapsa":{"abi":[{"inputs":[{"internalType":"uint256","name":"amountUSDC","type":"uint256"}],"name":"buyCAPSA","outputs":[],"stateMutability":"nonpayable","type":"function"},{"inputs":[{"internalType":"uint256","name":"amountUSDC","type":"uint256"}],"name":"getAmountCAPSA","outputs":[{"internalType":"uint256","name":"","type":"uint256"}],"stateMutability":"view","type":"function"},{"inputs":[{"internalType":"uint256","name":"amountCAPSA","type":"uint256"}],"name":"getAmountUSDC","outputs":[{"internalType":"uint256","name":"","type":"uint256"}],"stateMutability":"view","type":"function"},{"inputs":[],"name":"getPrice","outputs":[{"internalType":"uint256","name":"","type":"uint256"}],"stateMutability":"view","type":"function"},{"inputs":[{"internalType":"uint256","name":"amountCAPSA","type":"uint256"}],"name":"sellCAPSA","outputs":[],"stateMutability":"nonpayable","type":"function"}],"evm":{"bytecode":{"linkReferences":{},"object":"608060405234801561001057600080fd5b506101ea806100206000396000f3fe608060405234801561001057600080fd5b50600436106100575760003560e01c80631a6744191461005c57806398d5fdca14610078578063a7e2c4d214610096578063fc312c6f146100c6578063fe9d8323146100f6575b600080fd5b61007660048036038101906100719190610140565b610112565b005b610080610115565b60405161008d9190610178565b60405180910390f35b6100b060048036038101906100ab9190610140565b61011a565b6040516100bd9190610178565b60405180910390f35b6100e060048036038101906100db9190610140565b610121565b6040516100ed9190610178565b60405180910390f35b610110600480360381019061010b9190610140565b610128565b005b50565b600090565b6000919050565b6000919050565b50565b60008135905061013a8161019d565b92915050565b60006020828403121561015257600080fd5b60006101608482850161012b565b91505092915050565b61017281610193565b82525050565b600060208201905061018d6000830184610169565b92915050565b6000819050919050565b6101a681610193565b81146101b157600080fd5b5056fea2646970667358221220ed7366102dca4b6f9289c80ab788e19f065e45d5c1eb031a08f72d2ce4c7742b64736f6c63430008040033","opcodes":"PUSH1 0x80 PUSH1 0x40 MSTORE CALLVALUE DUP1 ISZERO PUSH2 0x10 JUMPI PUSH1 0x0 DUP1 REVERT JUMPDEST POP PUSH2 0x1EA DUP1 PUSH2 0x20 PUSH1 0x0 CODECOPY PUSH1 0x0 RETURN INVALID PUSH1 0x80 PUSH1 0x40 MSTORE CALLVALUE DUP1 ISZERO PUSH2 0x10 JUMPI PUSH1 0x0 DUP1 REVERT JUMPDEST POP PUSH1 0x4 CALLDATASIZE LT PUSH2 0x57 JUMPI PUSH1 0x0 CALLDATALOAD PUSH1 0xE0 SHR DUP1 PUSH4 0x1A674419 EQ PUSH2 0x5C JUMPI DUP1 PUSH4 0x98D5FDCA EQ PUSH2 0x78 JUMPI DUP1 PUSH4 0xA7E2C4D2 EQ PUSH2 0x96 JUMPI DUP1 PUSH4 0xFC312C6F EQ PUSH2 0xC6 JUMPI DUP1 PUSH4 0xFE9D8323 EQ PUSH2 0xF6 JUMPI JUMPDEST PUSH1 0x0 DUP1 REVERT JUMPDEST PUSH2 0x76 PUSH1 0x4 DUP1 CALLDATASIZE SUB DUP2 ADD SWAP1 PUSH2 0x71 SWAP2 SWAP1 PUSH2 0x140 JUMP JUMPDEST PUSH2 0x112 JUMP JUMPDEST STOP JUMPDEST PUSH2 0x80 PUSH2 0x115 JUMP JUMPDEST PUSH1 0x40 MLOAD PUSH2 0x8D SWAP2 SWAP1 PUSH2 0x178 JUMP JUMPDEST PUSH1 0x40 MLOAD DUP1 SWAP2 SUB SWAP1 RETURN JUMPDEST PUSH2 0xB0 PUSH1 0x4 DUP1 CALLDATASIZE SUB DUP2 ADD SWAP1 PUSH2 0xAB SWAP2 SWAP1 PUSH2 0x140 JUMP JUMPDEST PUSH2 0x11A JUMP JUMPDEST PUSH1 0x40 MLOAD PUSH2 0xBD SWAP2 SWAP1 PUSH2 0x178 JUMP JUMPDEST PUSH1 0x40 MLOAD DUP1 SWAP2 SUB SWAP1 RETURN JUMPDEST PUSH2 0xE0 PUSH1 0x4 DUP1 CALLDATASIZE SUB DUP2 ADD SWAP1 PUSH2 0xDB SWAP2 SWAP1 PUSH2 0x140 JUMP JUMPDEST PUSH2 0x121 JUMP JUMPDEST PUSH1 0x40 MLOAD PUSH2 0xED SWAP2 SWAP1 PUSH2 0x178 JUMP JUMPDEST PUSH1 0x40 MLOAD DUP1 SWAP2 SUB SWAP1 RETURN JUMPDEST PUSH2 0x110 PUSH1 0x4 DUP1 CALLDATASIZE SUB DUP2 ADD SWAP1 PUSH2 0x10B SWAP2 SWAP1 PUSH2 0x140 JUMP JUMPDEST PUSH2 0x128 JUMP JUMPDEST STOP JUMPDEST POP JUMP JUMPDEST PUSH1 0x0 SWAP1 JUMP JUMPDEST PUSH1 0x0 SWAP2 SWAP1 POP JUMP JUMPDEST PUSH1 0x0 SWAP2 SWAP1 POP JUMP JUMPDEST POP JUMP JUMPDEST PUSH1 0x0 DUP2 CALLDATALOAD SWAP1 POP PUSH2 0x13A DUP2 PUSH2 0x19D JUMP JUMPDEST SWAP3 SWAP2 POP POP JUMP JUMPDEST PUSH1 0x0 PUSH1 0x20 DUP3 DUP5 SUB SLT ISZERO PUSH2 0x152 JUMPI PUSH1 0x0 DUP1 REVERT JUMPDEST PUSH1 0x0 PUSH2 0x160 DUP5 DUP3 DUP6 ADD PUSH2 0x12B JUMP JUMPDEST SWAP2 POP POP SWAP3 SWAP2 POP POP JUMP JUMPDEST PUSH2 0x172 DUP2 PUSH2 0x193 JUMP JUMPDEST DUP3 MSTORE POP POP JUMP JUMPDEST PUSH1 0x0 PUSH1 0x20 DUP3 ADD SWAP1 POP PUSH2 0x18D PUSH1 0x0 DUP4 ADD DUP5 PUSH2 0x169 JUMP JUMPDEST SWAP3 SWAP2 POP POP JUMP JUMPDEST PUSH1 0x0 DUP2 SWAP1 POP SWAP2 SWAP1 POP JUMP JUMPDEST PUSH2 0x1A6 DUP2 PUSH2 0x193 JUMP JUMPDEST DUP2 EQ PUSH2 0x1B1 JUMPI PUSH1 0x0 DUP1 REVERT JUMPDEST POP JUMP INVALID LOG2 PUSH5 0x6970667358 0x22 SLT KECCAK256 0xED PUSH20 0x66102DCA4B6F9289C80AB788E19F065E45D5C1EB SUB BYTE ADDMOD 0xF7 0x2D 0x2C 0xE4 0xC7 PUSH21 0x2B64736F6C63430008040033000000000000000000 "},"methodIdentifiers":{"buyCAPSA(uint256)":"1a674419","getAmountCAPSA(uint256)":"a7e2c4d2","getAmountUSDC(uint256)":"fc312c6f","getPrice()":"98d5fdca","sellCAPSA(uint256)":"fe9d8323"}}}}}