{
  "_format": "hh-sol-artifact-1",
  "contractName": "LDG01",
  "sourceName": "contracts/erc20token.sol",
  "abi": [
    {
      "inputs": [],
      "stateMutability": "nonpayable",
      "type": "constructor"
    },
    {
      "anonymous": false,
      "inputs": [
        {
          "indexed": true,
          "internalType": "address",
          "name": "owner",
          "type": "address"
        },
        {
          "indexed": true,
          "internalType": "address",
          "name": "spender",
          "type": "address"
        },
        {
          "indexed": false,
          "internalType": "uint256",
          "name": "value",
          "type": "uint256"
        }
      ],
      "name": "Approval",
      "type": "event"
    },
    {
      "anonymous": false,
      "inputs": [
        {
          "indexed": false,
          "internalType": "address",
          "name": "account",
          "type": "address"
        }
      ],
      "name": "Paused",
      "type": "event"
    },
    {
      "anonymous": false,
      "inputs": [
        {
          "indexed": true,
          "internalType": "bytes32",
          "name": "role",
          "type": "bytes32"
        },
        {
          "indexed": true,
          "internalType": "bytes32",
          "name": "previousAdminRole",
          "type": "bytes32"
        },
        {
          "indexed": true,
          "internalType": "bytes32",
          "name": "newAdminRole",
          "type": "bytes32"
        }
      ],
      "name": "RoleAdminChanged",
      "type": "event"
    },
    {
      "anonymous": false,
      "inputs": [
        {
          "indexed": true,
          "internalType": "bytes32",
          "name": "role",
          "type": "bytes32"
        },
        {
          "indexed": true,
          "internalType": "address",
          "name": "account",
          "type": "address"
        },
        {
          "indexed": true,
          "internalType": "address",
          "name": "sender",
          "type": "address"
        }
      ],
      "name": "RoleGranted",
      "type": "event"
    },
    {
      "anonymous": false,
      "inputs": [
        {
          "indexed": true,
          "internalType": "bytes32",
          "name": "role",
          "type": "bytes32"
        },
        {
          "indexed": true,
          "internalType": "address",
          "name": "account",
          "type": "address"
        },
        {
          "indexed": true,
          "internalType": "address",
          "name": "sender",
          "type": "address"
        }
      ],
      "name": "RoleRevoked",
      "type": "event"
    },
    {
      "anonymous": false,
      "inputs": [
        {
          "indexed": true,
          "internalType": "address",
          "name": "from",
          "type": "address"
        },
        {
          "indexed": true,
          "internalType": "address",
          "name": "to",
          "type": "address"
        },
        {
          "indexed": false,
          "internalType": "uint256",
          "name": "value",
          "type": "uint256"
        }
      ],
      "name": "Transfer",
      "type": "event"
    },
    {
      "anonymous": false,
      "inputs": [
        {
          "indexed": false,
          "internalType": "address",
          "name": "account",
          "type": "address"
        }
      ],
      "name": "Unpaused",
      "type": "event"
    },
    {
      "inputs": [],
      "name": "DEFAULT_ADMIN_ROLE",
      "outputs": [
        {
          "internalType": "bytes32",
          "name": "",
          "type": "bytes32"
        }
      ],
      "stateMutability": "view",
      "type": "function"
    },
    {
      "inputs": [],
      "name": "MINTER_ROLE",
      "outputs": [
        {
          "internalType": "bytes32",
          "name": "",
          "type": "bytes32"
        }
      ],
      "stateMutability": "view",
      "type": "function"
    },
    {
      "inputs": [],
      "name": "PAUSER_ROLE",
      "outputs": [
        {
          "internalType": "bytes32",
          "name": "",
          "type": "bytes32"
        }
      ],
      "stateMutability": "view",
      "type": "function"
    },
    {
      "inputs": [
        {
          "internalType": "address",
          "name": "owner",
          "type": "address"
        },
        {
          "internalType": "address",
          "name": "spender",
          "type": "address"
        }
      ],
      "name": "allowance",
      "outputs": [
        {
          "internalType": "uint256",
          "name": "",
          "type": "uint256"
        }
      ],
      "stateMutability": "view",
      "type": "function"
    },
    {
      "inputs": [
        {
          "internalType": "address",
          "name": "spender",
          "type": "address"
        },
        {
          "internalType": "uint256",
          "name": "amount",
          "type": "uint256"
        }
      ],
      "name": "approve",
      "outputs": [
        {
          "internalType": "bool",
          "name": "",
          "type": "bool"
        }
      ],
      "stateMutability": "nonpayable",
      "type": "function"
    },
    {
      "inputs": [
        {
          "internalType": "address",
          "name": "account",
          "type": "address"
        }
      ],
      "name": "balanceOf",
      "outputs": [
        {
          "internalType": "uint256",
          "name": "",
          "type": "uint256"
        }
      ],
      "stateMutability": "view",
      "type": "function"
    },
    {
      "inputs": [
        {
          "internalType": "uint256",
          "name": "amount",
          "type": "uint256"
        }
      ],
      "name": "burn",
      "outputs": [],
      "stateMutability": "nonpayable",
      "type": "function"
    },
    {
      "inputs": [
        {
          "internalType": "address",
          "name": "account",
          "type": "address"
        },
        {
          "internalType": "uint256",
          "name": "amount",
          "type": "uint256"
        }
      ],
      "name": "burnFrom",
      "outputs": [],
      "stateMutability": "nonpayable",
      "type": "function"
    },
    {
      "inputs": [],
      "name": "decimals",
      "outputs": [
        {
          "internalType": "uint8",
          "name": "",
          "type": "uint8"
        }
      ],
      "stateMutability": "view",
      "type": "function"
    },
    {
      "inputs": [
        {
          "internalType": "address",
          "name": "spender",
          "type": "address"
        },
        {
          "internalType": "uint256",
          "name": "subtractedValue",
          "type": "uint256"
        }
      ],
      "name": "decreaseAllowance",
      "outputs": [
        {
          "internalType": "bool",
          "name": "",
          "type": "bool"
        }
      ],
      "stateMutability": "nonpayable",
      "type": "function"
    },
    {
      "inputs": [
        {
          "internalType": "bytes32",
          "name": "role",
          "type": "bytes32"
        }
      ],
      "name": "getRoleAdmin",
      "outputs": [
        {
          "internalType": "bytes32",
          "name": "",
          "type": "bytes32"
        }
      ],
      "stateMutability": "view",
      "type": "function"
    },
    {
      "inputs": [
        {
          "internalType": "bytes32",
          "name": "role",
          "type": "bytes32"
        },
        {
          "internalType": "address",
          "name": "account",
          "type": "address"
        }
      ],
      "name": "grantRole",
      "outputs": [],
      "stateMutability": "nonpayable",
      "type": "function"
    },
    {
      "inputs": [
        {
          "internalType": "bytes32",
          "name": "role",
          "type": "bytes32"
        },
        {
          "internalType": "address",
          "name": "account",
          "type": "address"
        }
      ],
      "name": "hasRole",
      "outputs": [
        {
          "internalType": "bool",
          "name": "",
          "type": "bool"
        }
      ],
      "stateMutability": "view",
      "type": "function"
    },
    {
      "inputs": [
        {
          "internalType": "address",
          "name": "spender",
          "type": "address"
        },
        {
          "internalType": "uint256",
          "name": "addedValue",
          "type": "uint256"
        }
      ],
      "name": "increaseAllowance",
      "outputs": [
        {
          "internalType": "bool",
          "name": "",
          "type": "bool"
        }
      ],
      "stateMutability": "nonpayable",
      "type": "function"
    },
    {
      "inputs": [
        {
          "internalType": "address",
          "name": "_to",
          "type": "address"
        },
        {
          "internalType": "uint256",
          "name": "_amount",
          "type": "uint256"
        }
      ],
      "name": "mint",
      "outputs": [],
      "stateMutability": "nonpayable",
      "type": "function"
    },
    {
      "inputs": [],
      "name": "name",
      "outputs": [
        {
          "internalType": "string",
          "name": "",
          "type": "string"
        }
      ],
      "stateMutability": "view",
      "type": "function"
    },
    {
      "inputs": [],
      "name": "pause",
      "outputs": [],
      "stateMutability": "nonpayable",
      "type": "function"
    },
    {
      "inputs": [],
      "name": "paused",
      "outputs": [
        {
          "internalType": "bool",
          "name": "",
          "type": "bool"
        }
      ],
      "stateMutability": "view",
      "type": "function"
    },
    {
      "inputs": [
        {
          "internalType": "bytes32",
          "name": "role",
          "type": "bytes32"
        },
        {
          "internalType": "address",
          "name": "account",
          "type": "address"
        }
      ],
      "name": "renounceRole",
      "outputs": [],
      "stateMutability": "nonpayable",
      "type": "function"
    },
    {
      "inputs": [
        {
          "internalType": "bytes32",
          "name": "role",
          "type": "bytes32"
        },
        {
          "internalType": "address",
          "name": "account",
          "type": "address"
        }
      ],
      "name": "revokeRole",
      "outputs": [],
      "stateMutability": "nonpayable",
      "type": "function"
    },
    {
      "inputs": [
        {
          "internalType": "bytes4",
          "name": "interfaceId",
          "type": "bytes4"
        }
      ],
      "name": "supportsInterface",
      "outputs": [
        {
          "internalType": "bool",
          "name": "",
          "type": "bool"
        }
      ],
      "stateMutability": "view",
      "type": "function"
    },
    {
      "inputs": [],
      "name": "symbol",
      "outputs": [
        {
          "internalType": "string",
          "name": "",
          "type": "string"
        }
      ],
      "stateMutability": "view",
      "type": "function"
    },
    {
      "inputs": [],
      "name": "totalSupply",
      "outputs": [
        {
          "internalType": "uint256",
          "name": "",
          "type": "uint256"
        }
      ],
      "stateMutability": "view",
      "type": "function"
    },
    {
      "inputs": [
        {
          "internalType": "address",
          "name": "to",
          "type": "address"
        },
        {
          "internalType": "uint256",
          "name": "amount",
          "type": "uint256"
        }
      ],
      "name": "transfer",
      "outputs": [
        {
          "internalType": "bool",
          "name": "",
          "type": "bool"
        }
      ],
      "stateMutability": "nonpayable",
      "type": "function"
    },
    {
      "inputs": [
        {
          "internalType": "address",
          "name": "from",
          "type": "address"
        },
        {
          "internalType": "address",
          "name": "to",
          "type": "address"
        },
        {
          "internalType": "uint256",
          "name": "amount",
          "type": "uint256"
        }
      ],
      "name": "transferFrom",
      "outputs": [
        {
          "internalType": "bool",
          "name": "",
          "type": "bool"
        }
      ],
      "stateMutability": "nonpayable",
      "type": "function"
    },
    {
      "inputs": [],
      "name": "unpause",
      "outputs": [],
      "stateMutability": "nonpayable",
      "type": "function"
    }
  ],
  "bytecode": "0x60806040523480156200001157600080fd5b506040518060400160405280600981526020017f4c454447495459303100000000000000000000000000000000000000000000008152506040518060400160405280600581526020017f4c4447303100000000000000000000000000000000000000000000000000000081525081600390805190602001906200009692919062000295565b508060049080519060200190620000af92919062000295565b5050506000600560006101000a81548160ff021916908315150217905550620000e26000801b336200011a60201b60201c565b620001147f65d7a28e3265b37a6474929f336521b332c1681b933f6cb9f3376673440d862a336200011a60201b60201c565b620003aa565b6200012c82826200013060201b60201c565b5050565b6200014282826200022260201b60201c565b6200021e5760016006600084815260200190815260200160002060000160008373ffffffffffffffffffffffffffffffffffffffff1673ffffffffffffffffffffffffffffffffffffffff16815260200190815260200160002060006101000a81548160ff021916908315150217905550620001c36200028d60201b60201c565b73ffffffffffffffffffffffffffffffffffffffff168173ffffffffffffffffffffffffffffffffffffffff16837f2f8788117e7eff1d82e926ec794901d17c78024a50270940304540a733656f0d60405160405180910390a45b5050565b60006006600084815260200190815260200160002060000160008373ffffffffffffffffffffffffffffffffffffffff1673ffffffffffffffffffffffffffffffffffffffff16815260200190815260200160002060009054906101000a900460ff16905092915050565b600033905090565b828054620002a39062000345565b90600052602060002090601f016020900481019282620002c7576000855562000313565b82601f10620002e257805160ff191683800117855562000313565b8280016001018555821562000313579182015b8281111562000312578251825591602001919060010190620002f5565b5b50905062000322919062000326565b5090565b5b808211156200034157600081600090555060010162000327565b5090565b600060028204905060018216806200035e57607f821691505b602082108114156200037557620003746200037b565b5b50919050565b7f4e487b7100000000000000000000000000000000000000000000000000000000600052602260045260246000fd5b61297b80620003ba6000396000f3fe608060405234801561001057600080fd5b506004361061018e5760003560e01c80635c975abb116100de578063a217fddf11610097578063d539139311610071578063d539139314610497578063d547741f146104b5578063dd62ed3e146104d1578063e63ab1e9146105015761018e565b8063a217fddf14610419578063a457c2d714610437578063a9059cbb146104675761018e565b80635c975abb1461035757806370a082311461037557806379cc6790146103a55780638456cb59146103c157806391d14854146103cb57806395d89b41146103fb5761018e565b80632f2ff15d1161014b578063395093511161012557806339509351146102e55780633f4ba83a1461031557806340c10f191461031f57806342966c681461033b5761018e565b80632f2ff15d1461028f578063313ce567146102ab57806336568abe146102c95761018e565b806301ffc9a71461019357806306fdde03146101c3578063095ea7b3146101e157806318160ddd1461021157806323b872dd1461022f578063248a9ca31461025f575b600080fd5b6101ad60048036038101906101a89190611c95565b61051f565b6040516101ba9190612021565b60405180910390f35b6101cb610599565b6040516101d89190612057565b60405180910390f35b6101fb60048036038101906101f69190611bf4565b61062b565b6040516102089190612021565b60405180910390f35b61021961064e565b6040516102269190612239565b60405180910390f35b61024960048036038101906102449190611ba5565b610658565b6040516102569190612021565b60405180910390f35b61027960048036038101906102749190611c30565b610687565b604051610286919061203c565b60405180910390f35b6102a960048036038101906102a49190611c59565b6106a7565b005b6102b36106c8565b6040516102c09190612254565b60405180910390f35b6102e360048036038101906102de9190611c59565b6106d1565b005b6102ff60048036038101906102fa9190611bf4565b610754565b60405161030c9190612021565b60405180910390f35b61031d61078b565b005b61033960048036038101906103349190611bf4565b6107c0565b005b61035560048036038101906103509190611cbe565b61082c565b005b61035f610840565b60405161036c9190612021565b60405180910390f35b61038f600480360381019061038a9190611b40565b610857565b60405161039c9190612239565b60405180910390f35b6103bf60048036038101906103ba9190611bf4565b61089f565b005b6103c96108bf565b005b6103e560048036038101906103e09190611c59565b6108f4565b6040516103f29190612021565b60405180910390f35b61040361095f565b6040516104109190612057565b60405180910390f35b6104216109f1565b60405161042e919061203c565b60405180910390f35b610451600480360381019061044c9190611bf4565b6109f8565b60405161045e9190612021565b60405180910390f35b610481600480360381019061047c9190611bf4565b610a6f565b60405161048e9190612021565b60405180910390f35b61049f610a92565b6040516104ac919061203c565b60405180910390f35b6104cf60048036038101906104ca9190611c59565b610ab6565b005b6104eb60048036038101906104e69190611b69565b610ad7565b6040516104f89190612239565b60405180910390f35b610509610b5e565b604051610516919061203c565b60405180910390f35b60007f7965db0b000000000000000000000000000000000000000000000000000000007bffffffffffffffffffffffffffffffffffffffffffffffffffffffff1916827bffffffffffffffffffffffffffffffffffffffffffffffffffffffff19161480610592575061059182610b82565b5b9050919050565b6060600380546105a890612462565b80601f01602080910402602001604051908101604052809291908181526020018280546105d490612462565b80156106215780601f106105f657610100808354040283529160200191610621565b820191906000526020600020905b81548152906001019060200180831161060457829003601f168201915b5050505050905090565b600080610636610bec565b9050610643818585610bf4565b600191505092915050565b6000600254905090565b600080610663610bec565b9050610670858285610dbf565b61067b858585610e4b565b60019150509392505050565b600060066000838152602001908152602001600020600101549050919050565b6106b082610687565b6106b9816110cc565b6106c383836110e0565b505050565b60006006905090565b6106d9610bec565b73ffffffffffffffffffffffffffffffffffffffff168173ffffffffffffffffffffffffffffffffffffffff1614610746576040517f08c379a000000000000000000000000000000000000000000000000000000000815260040161073d906121f9565b60405180910390fd5b61075082826111c1565b5050565b60008061075f610bec565b90506107808185856107718589610ad7565b61077b9190612296565b610bf4565b600191505092915050565b7f65d7a28e3265b37a6474929f336521b332c1681b933f6cb9f3376673440d862a6107b5816110cc565b6107bd6112a3565b50565b7f9f2df0fed2c77648de5860a4cc508cd0818c85b8b8a1ab4ceeef8d981c8956a66107ea816110cc565b6108147f9f2df0fed2c77648de5860a4cc508cd0818c85b8b8a1ab4ceeef8d981c8956a6336108f4565b61081d57600080fd5b6108278383611306565b505050565b61083d610837610bec565b82611466565b50565b6000600560009054906101000a900460ff16905090565b60008060008373ffffffffffffffffffffffffffffffffffffffff1673ffffffffffffffffffffffffffffffffffffffff168152602001908152602001600020549050919050565b6108b1826108ab610bec565b83610dbf565b6108bb8282611466565b5050565b7f65d7a28e3265b37a6474929f336521b332c1681b933f6cb9f3376673440d862a6108e9816110cc565b6108f161163d565b50565b60006006600084815260200190815260200160002060000160008373ffffffffffffffffffffffffffffffffffffffff1673ffffffffffffffffffffffffffffffffffffffff16815260200190815260200160002060009054906101000a900460ff16905092915050565b60606004805461096e90612462565b80601f016020809104026020016040519081016040528092919081815260200182805461099a90612462565b80156109e75780601f106109bc576101008083540402835291602001916109e7565b820191906000526020600020905b8154815290600101906020018083116109ca57829003601f168201915b5050505050905090565b6000801b81565b600080610a03610bec565b90506000610a118286610ad7565b905083811015610a56576040517f08c379a0000000000000000000000000000000000000000000000000000000008152600401610a4d906121d9565b60405180910390fd5b610a638286868403610bf4565b60019250505092915050565b600080610a7a610bec565b9050610a87818585610e4b565b600191505092915050565b7f9f2df0fed2c77648de5860a4cc508cd0818c85b8b8a1ab4ceeef8d981c8956a681565b610abf82610687565b610ac8816110cc565b610ad283836111c1565b505050565b6000600160008473ffffffffffffffffffffffffffffffffffffffff1673ffffffffffffffffffffffffffffffffffffffff16815260200190815260200160002060008373ffffffffffffffffffffffffffffffffffffffff1673ffffffffffffffffffffffffffffffffffffffff16815260200190815260200160002054905092915050565b7f65d7a28e3265b37a6474929f336521b332c1681b933f6cb9f3376673440d862a81565b60007f01ffc9a7000000000000000000000000000000000000000000000000000000007bffffffffffffffffffffffffffffffffffffffffffffffffffffffff1916827bffffffffffffffffffffffffffffffffffffffffffffffffffffffff1916149050919050565b600033905090565b600073ffffffffffffffffffffffffffffffffffffffff168373ffffffffffffffffffffffffffffffffffffffff161415610c64576040517f08c379a0000000000000000000000000000000000000000000000000000000008152600401610c5b906121b9565b60405180910390fd5b600073ffffffffffffffffffffffffffffffffffffffff168273ffffffffffffffffffffffffffffffffffffffff161415610cd4576040517f08c379a0000000000000000000000000000000000000000000000000000000008152600401610ccb906120f9565b60405180910390fd5b80600160008573ffffffffffffffffffffffffffffffffffffffff1673ffffffffffffffffffffffffffffffffffffffff16815260200190815260200160002060008473ffffffffffffffffffffffffffffffffffffffff1673ffffffffffffffffffffffffffffffffffffffff168152602001908152602001600020819055508173ffffffffffffffffffffffffffffffffffffffff168373ffffffffffffffffffffffffffffffffffffffff167f8c5be1e5ebec7d5bd14f71427d1e84f3dd0314c0f7b2291e5b200ac8c7c3b92583604051610db29190612239565b60405180910390a3505050565b6000610dcb8484610ad7565b90507fffffffffffffffffffffffffffffffffffffffffffffffffffffffffffffffff8114610e455781811015610e37576040517f08c379a0000000000000000000000000000000000000000000000000000000008152600401610e2e90612119565b60405180910390fd5b610e448484848403610bf4565b5b50505050565b600073ffffffffffffffffffffffffffffffffffffffff168373ffffffffffffffffffffffffffffffffffffffff161415610ebb576040517f08c379a0000000000000000000000000000000000000000000000000000000008152600401610eb290612199565b60405180910390fd5b600073ffffffffffffffffffffffffffffffffffffffff168273ffffffffffffffffffffffffffffffffffffffff161415610f2b576040517f08c379a0000000000000000000000000000000000000000000000000000000008152600401610f2290612099565b60405180910390fd5b610f368383836116a0565b60008060008573ffffffffffffffffffffffffffffffffffffffff1673ffffffffffffffffffffffffffffffffffffffff16815260200190815260200160002054905081811015610fbc576040517f08c379a0000000000000000000000000000000000000000000000000000000008152600401610fb390612139565b60405180910390fd5b8181036000808673ffffffffffffffffffffffffffffffffffffffff1673ffffffffffffffffffffffffffffffffffffffff16815260200190815260200160002081905550816000808573ffffffffffffffffffffffffffffffffffffffff1673ffffffffffffffffffffffffffffffffffffffff168152602001908152602001600020600082825461104f9190612296565b925050819055508273ffffffffffffffffffffffffffffffffffffffff168473ffffffffffffffffffffffffffffffffffffffff167fddf252ad1be2c89b69c2b068fc378daa952ba7f163c4a11628f55a4df523b3ef846040516110b39190612239565b60405180910390a36110c68484846116b8565b50505050565b6110dd816110d8610bec565b6116bd565b50565b6110ea82826108f4565b6111bd5760016006600084815260200190815260200160002060000160008373ffffffffffffffffffffffffffffffffffffffff1673ffffffffffffffffffffffffffffffffffffffff16815260200190815260200160002060006101000a81548160ff021916908315150217905550611162610bec565b73ffffffffffffffffffffffffffffffffffffffff168173ffffffffffffffffffffffffffffffffffffffff16837f2f8788117e7eff1d82e926ec794901d17c78024a50270940304540a733656f0d60405160405180910390a45b5050565b6111cb82826108f4565b1561129f5760006006600084815260200190815260200160002060000160008373ffffffffffffffffffffffffffffffffffffffff1673ffffffffffffffffffffffffffffffffffffffff16815260200190815260200160002060006101000a81548160ff021916908315150217905550611244610bec565b73ffffffffffffffffffffffffffffffffffffffff168173ffffffffffffffffffffffffffffffffffffffff16837ff6391f5c32d9c69d2a47ea670b442974b53935d1edc7fd64eb21e047a839171b60405160405180910390a45b5050565b6112ab61175a565b6000600560006101000a81548160ff0219169083151502179055507f5db9ee0a495bf2e6ff9c91a7834c1ba4fdd244a5e8aa4e537bd38aeae4b073aa6112ef610bec565b6040516112fc9190612006565b60405180910390a1565b600073ffffffffffffffffffffffffffffffffffffffff168273ffffffffffffffffffffffffffffffffffffffff161415611376576040517f08c379a000000000000000000000000000000000000000000000000000000000815260040161136d90612219565b60405180910390fd5b611382600083836116a0565b80600260008282546113949190612296565b92505081905550806000808473ffffffffffffffffffffffffffffffffffffffff1673ffffffffffffffffffffffffffffffffffffffff16815260200190815260200160002060008282546113e99190612296565b925050819055508173ffffffffffffffffffffffffffffffffffffffff16600073ffffffffffffffffffffffffffffffffffffffff167fddf252ad1be2c89b69c2b068fc378daa952ba7f163c4a11628f55a4df523b3ef8360405161144e9190612239565b60405180910390a3611462600083836116b8565b5050565b600073ffffffffffffffffffffffffffffffffffffffff168273ffffffffffffffffffffffffffffffffffffffff1614156114d6576040517f08c379a00000000000000000000000000000000000000000000000000000000081526004016114cd90612179565b60405180910390fd5b6114e2826000836116a0565b60008060008473ffffffffffffffffffffffffffffffffffffffff1673ffffffffffffffffffffffffffffffffffffffff16815260200190815260200160002054905081811015611568576040517f08c379a000000000000000000000000000000000000000000000000000000000815260040161155f906120d9565b60405180910390fd5b8181036000808573ffffffffffffffffffffffffffffffffffffffff1673ffffffffffffffffffffffffffffffffffffffff1681526020019081526020016000208190555081600260008282546115bf9190612346565b92505081905550600073ffffffffffffffffffffffffffffffffffffffff168373ffffffffffffffffffffffffffffffffffffffff167fddf252ad1be2c89b69c2b068fc378daa952ba7f163c4a11628f55a4df523b3ef846040516116249190612239565b60405180910390a3611638836000846116b8565b505050565b6116456117a3565b6001600560006101000a81548160ff0219169083151502179055507f62e78cea01bee320cd4e420270b5ea74000d11b0c9f74754ebdbfc544b05a258611689610bec565b6040516116969190612006565b60405180910390a1565b6116a86117a3565b6116b38383836117ed565b505050565b505050565b6116c782826108f4565b611756576116ec8173ffffffffffffffffffffffffffffffffffffffff1660146117f2565b6116fa8360001c60206117f2565b60405160200161170b929190611fcc565b6040516020818303038152906040526040517f08c379a000000000000000000000000000000000000000000000000000000000815260040161174d9190612057565b60405180910390fd5b5050565b611762610840565b6117a1576040517f08c379a0000000000000000000000000000000000000000000000000000000008152600401611798906120b9565b60405180910390fd5b565b6117ab610840565b156117eb576040517f08c379a00000000000000000000000000000000000000000000000000000000081526004016117e290612159565b60405180910390fd5b565b505050565b60606000600283600261180591906122ec565b61180f9190612296565b67ffffffffffffffff81111561184e577f4e487b7100000000000000000000000000000000000000000000000000000000600052604160045260246000fd5b6040519080825280601f01601f1916602001820160405280156118805781602001600182028036833780820191505090505b5090507f3000000000000000000000000000000000000000000000000000000000000000816000815181106118de577f4e487b7100000000000000000000000000000000000000000000000000000000600052603260045260246000fd5b60200101907effffffffffffffffffffffffffffffffffffffffffffffffffffffffffffff1916908160001a9053507f780000000000000000000000000000000000000000000000000000000000000081600181518110611968577f4e487b7100000000000000000000000000000000000000000000000000000000600052603260045260246000fd5b60200101907effffffffffffffffffffffffffffffffffffffffffffffffffffffffffffff1916908160001a905350600060018460026119a891906122ec565b6119b29190612296565b90505b6001811115611a9e577f3031323334353637383961626364656600000000000000000000000000000000600f861660108110611a1a577f4e487b7100000000000000000000000000000000000000000000000000000000600052603260045260246000fd5b1a60f81b828281518110611a57577f4e487b7100000000000000000000000000000000000000000000000000000000600052603260045260246000fd5b60200101907effffffffffffffffffffffffffffffffffffffffffffffffffffffffffffff1916908160001a905350600485901c945080611a9790612438565b90506119b5565b5060008414611ae2576040517f08c379a0000000000000000000000000000000000000000000000000000000008152600401611ad990612079565b60405180910390fd5b8091505092915050565b600081359050611afb816128e9565b92915050565b600081359050611b1081612900565b92915050565b600081359050611b2581612917565b92915050565b600081359050611b3a8161292e565b92915050565b600060208284031215611b5257600080fd5b6000611b6084828501611aec565b91505092915050565b60008060408385031215611b7c57600080fd5b6000611b8a85828601611aec565b9250506020611b9b85828601611aec565b9150509250929050565b600080600060608486031215611bba57600080fd5b6000611bc886828701611aec565b9350506020611bd986828701611aec565b9250506040611bea86828701611b2b565b9150509250925092565b60008060408385031215611c0757600080fd5b6000611c1585828601611aec565b9250506020611c2685828601611b2b565b9150509250929050565b600060208284031215611c4257600080fd5b6000611c5084828501611b01565b91505092915050565b60008060408385031215611c6c57600080fd5b6000611c7a85828601611b01565b9250506020611c8b85828601611aec565b9150509250929050565b600060208284031215611ca757600080fd5b6000611cb584828501611b16565b91505092915050565b600060208284031215611cd057600080fd5b6000611cde84828501611b2b565b91505092915050565b611cf08161237a565b82525050565b611cff8161238c565b82525050565b611d0e81612398565b82525050565b6000611d1f8261226f565b611d29818561227a565b9350611d39818560208601612405565b611d42816124f2565b840191505092915050565b6000611d588261226f565b611d62818561228b565b9350611d72818560208601612405565b80840191505092915050565b6000611d8b60208361227a565b9150611d9682612503565b602082019050919050565b6000611dae60238361227a565b9150611db98261252c565b604082019050919050565b6000611dd160148361227a565b9150611ddc8261257b565b602082019050919050565b6000611df460228361227a565b9150611dff826125a4565b604082019050919050565b6000611e1760228361227a565b9150611e22826125f3565b604082019050919050565b6000611e3a601d8361227a565b9150611e4582612642565b602082019050919050565b6000611e5d60268361227a565b9150611e688261266b565b604082019050919050565b6000611e8060108361227a565b9150611e8b826126ba565b602082019050919050565b6000611ea360218361227a565b9150611eae826126e3565b604082019050919050565b6000611ec660258361227a565b9150611ed182612732565b604082019050919050565b6000611ee960248361227a565b9150611ef482612781565b604082019050919050565b6000611f0c60178361228b565b9150611f17826127d0565b601782019050919050565b6000611f2f60258361227a565b9150611f3a826127f9565b604082019050919050565b6000611f5260118361228b565b9150611f5d82612848565b601182019050919050565b6000611f75602f8361227a565b9150611f8082612871565b604082019050919050565b6000611f98601f8361227a565b9150611fa3826128c0565b602082019050919050565b611fb7816123ee565b82525050565b611fc6816123f8565b82525050565b6000611fd782611eff565b9150611fe38285611d4d565b9150611fee82611f45565b9150611ffa8284611d4d565b91508190509392505050565b600060208201905061201b6000830184611ce7565b92915050565b60006020820190506120366000830184611cf6565b92915050565b60006020820190506120516000830184611d05565b92915050565b600060208201905081810360008301526120718184611d14565b905092915050565b6000602082019050818103600083015261209281611d7e565b9050919050565b600060208201905081810360008301526120b281611da1565b9050919050565b600060208201905081810360008301526120d281611dc4565b9050919050565b600060208201905081810360008301526120f281611de7565b9050919050565b6000602082019050818103600083015261211281611e0a565b9050919050565b6000602082019050818103600083015261213281611e2d565b9050919050565b6000602082019050818103600083015261215281611e50565b9050919050565b6000602082019050818103600083015261217281611e73565b9050919050565b6000602082019050818103600083015261219281611e96565b9050919050565b600060208201905081810360008301526121b281611eb9565b9050919050565b600060208201905081810360008301526121d281611edc565b9050919050565b600060208201905081810360008301526121f281611f22565b9050919050565b6000602082019050818103600083015261221281611f68565b9050919050565b6000602082019050818103600083015261223281611f8b565b9050919050565b600060208201905061224e6000830184611fae565b92915050565b60006020820190506122696000830184611fbd565b92915050565b600081519050919050565b600082825260208201905092915050565b600081905092915050565b60006122a1826123ee565b91506122ac836123ee565b9250827fffffffffffffffffffffffffffffffffffffffffffffffffffffffffffffffff038211156122e1576122e0612494565b5b828201905092915050565b60006122f7826123ee565b9150612302836123ee565b9250817fffffffffffffffffffffffffffffffffffffffffffffffffffffffffffffffff048311821515161561233b5761233a612494565b5b828202905092915050565b6000612351826123ee565b915061235c836123ee565b92508282101561236f5761236e612494565b5b828203905092915050565b6000612385826123ce565b9050919050565b60008115159050919050565b6000819050919050565b60007fffffffff0000000000000000000000000000000000000000000000000000000082169050919050565b600073ffffffffffffffffffffffffffffffffffffffff82169050919050565b6000819050919050565b600060ff82169050919050565b60005b83811015612423578082015181840152602081019050612408565b83811115612432576000848401525b50505050565b6000612443826123ee565b9150600082141561245757612456612494565b5b600182039050919050565b6000600282049050600182168061247a57607f821691505b6020821081141561248e5761248d6124c3565b5b50919050565b7f4e487b7100000000000000000000000000000000000000000000000000000000600052601160045260246000fd5b7f4e487b7100000000000000000000000000000000000000000000000000000000600052602260045260246000fd5b6000601f19601f8301169050919050565b7f537472696e67733a20686578206c656e67746820696e73756666696369656e74600082015250565b7f45524332303a207472616e7366657220746f20746865207a65726f206164647260008201527f6573730000000000000000000000000000000000000000000000000000000000602082015250565b7f5061757361626c653a206e6f7420706175736564000000000000000000000000600082015250565b7f45524332303a206275726e20616d6f756e7420657863656564732062616c616e60008201527f6365000000000000000000000000000000000000000000000000000000000000602082015250565b7f45524332303a20617070726f766520746f20746865207a65726f20616464726560008201527f7373000000000000000000000000000000000000000000000000000000000000602082015250565b7f45524332303a20696e73756666696369656e7420616c6c6f77616e6365000000600082015250565b7f45524332303a207472616e7366657220616d6f756e742065786365656473206260008201527f616c616e63650000000000000000000000000000000000000000000000000000602082015250565b7f5061757361626c653a2070617573656400000000000000000000000000000000600082015250565b7f45524332303a206275726e2066726f6d20746865207a65726f2061646472657360008201527f7300000000000000000000000000000000000000000000000000000000000000602082015250565b7f45524332303a207472616e736665722066726f6d20746865207a65726f20616460008201527f6472657373000000000000000000000000000000000000000000000000000000602082015250565b7f45524332303a20617070726f76652066726f6d20746865207a65726f2061646460008201527f7265737300000000000000000000000000000000000000000000000000000000602082015250565b7f416363657373436f6e74726f6c3a206163636f756e7420000000000000000000600082015250565b7f45524332303a2064656372656173656420616c6c6f77616e63652062656c6f7760008201527f207a65726f000000000000000000000000000000000000000000000000000000602082015250565b7f206973206d697373696e6720726f6c6520000000000000000000000000000000600082015250565b7f416363657373436f6e74726f6c3a2063616e206f6e6c792072656e6f756e636560008201527f20726f6c657320666f722073656c660000000000000000000000000000000000602082015250565b7f45524332303a206d696e7420746f20746865207a65726f206164647265737300600082015250565b6128f28161237a565b81146128fd57600080fd5b50565b61290981612398565b811461291457600080fd5b50565b612920816123a2565b811461292b57600080fd5b50565b612937816123ee565b811461294257600080fd5b5056fea26469706673582212204a92e5681d2be34c58e018a00931e0045c74051e727bc1c1c291fab89789f75664736f6c63430008040033",
  "linkReferences": {},
  "deployedLinkReferences": {}
}