{
  "_format": "hh-sol-artifact-1",
  "contractName": "CAPSAToken",
  "sourceName": "contracts/capsaToken.sol",
  "abi": [
    {
      "inputs": [],
      "stateMutability": "nonpayable",
      "type": "constructor"
    },
    {
      "anonymous": false,
      "inputs": [
        {
          "indexed": true,
          "internalType": "address",
          "name": "owner",
          "type": "address"
        },
        {
          "indexed": true,
          "internalType": "address",
          "name": "spender",
          "type": "address"
        },
        {
          "indexed": false,
          "internalType": "uint256",
          "name": "value",
          "type": "uint256"
        }
      ],
      "name": "Approval",
      "type": "event"
    },
    {
      "anonymous": false,
      "inputs": [
        {
          "indexed": false,
          "internalType": "address",
          "name": "account",
          "type": "address"
        }
      ],
      "name": "Paused",
      "type": "event"
    },
    {
      "anonymous": false,
      "inputs": [
        {
          "indexed": true,
          "internalType": "bytes32",
          "name": "role",
          "type": "bytes32"
        },
        {
          "indexed": true,
          "internalType": "bytes32",
          "name": "previousAdminRole",
          "type": "bytes32"
        },
        {
          "indexed": true,
          "internalType": "bytes32",
          "name": "newAdminRole",
          "type": "bytes32"
        }
      ],
      "name": "RoleAdminChanged",
      "type": "event"
    },
    {
      "anonymous": false,
      "inputs": [
        {
          "indexed": true,
          "internalType": "bytes32",
          "name": "role",
          "type": "bytes32"
        },
        {
          "indexed": true,
          "internalType": "address",
          "name": "account",
          "type": "address"
        },
        {
          "indexed": true,
          "internalType": "address",
          "name": "sender",
          "type": "address"
        }
      ],
      "name": "RoleGranted",
      "type": "event"
    },
    {
      "anonymous": false,
      "inputs": [
        {
          "indexed": true,
          "internalType": "bytes32",
          "name": "role",
          "type": "bytes32"
        },
        {
          "indexed": true,
          "internalType": "address",
          "name": "account",
          "type": "address"
        },
        {
          "indexed": true,
          "internalType": "address",
          "name": "sender",
          "type": "address"
        }
      ],
      "name": "RoleRevoked",
      "type": "event"
    },
    {
      "anonymous": false,
      "inputs": [
        {
          "indexed": true,
          "internalType": "address",
          "name": "from",
          "type": "address"
        },
        {
          "indexed": true,
          "internalType": "address",
          "name": "to",
          "type": "address"
        },
        {
          "indexed": false,
          "internalType": "uint256",
          "name": "value",
          "type": "uint256"
        }
      ],
      "name": "Transfer",
      "type": "event"
    },
    {
      "anonymous": false,
      "inputs": [
        {
          "indexed": false,
          "internalType": "address",
          "name": "account",
          "type": "address"
        }
      ],
      "name": "Unpaused",
      "type": "event"
    },
    {
      "inputs": [],
      "name": "DEFAULT_ADMIN_ROLE",
      "outputs": [
        {
          "internalType": "bytes32",
          "name": "",
          "type": "bytes32"
        }
      ],
      "stateMutability": "view",
      "type": "function"
    },
    {
      "inputs": [],
      "name": "MINTER_ROLE",
      "outputs": [
        {
          "internalType": "bytes32",
          "name": "",
          "type": "bytes32"
        }
      ],
      "stateMutability": "view",
      "type": "function"
    },
    {
      "inputs": [],
      "name": "PAUSER_ROLE",
      "outputs": [
        {
          "internalType": "bytes32",
          "name": "",
          "type": "bytes32"
        }
      ],
      "stateMutability": "view",
      "type": "function"
    },
    {
      "inputs": [
        {
          "internalType": "address",
          "name": "owner",
          "type": "address"
        },
        {
          "internalType": "address",
          "name": "spender",
          "type": "address"
        }
      ],
      "name": "allowance",
      "outputs": [
        {
          "internalType": "uint256",
          "name": "",
          "type": "uint256"
        }
      ],
      "stateMutability": "view",
      "type": "function"
    },
    {
      "inputs": [
        {
          "internalType": "address",
          "name": "spender",
          "type": "address"
        },
        {
          "internalType": "uint256",
          "name": "amount",
          "type": "uint256"
        }
      ],
      "name": "approve",
      "outputs": [
        {
          "internalType": "bool",
          "name": "",
          "type": "bool"
        }
      ],
      "stateMutability": "nonpayable",
      "type": "function"
    },
    {
      "inputs": [
        {
          "internalType": "address",
          "name": "account",
          "type": "address"
        }
      ],
      "name": "balanceOf",
      "outputs": [
        {
          "internalType": "uint256",
          "name": "",
          "type": "uint256"
        }
      ],
      "stateMutability": "view",
      "type": "function"
    },
    {
      "inputs": [
        {
          "internalType": "uint256",
          "name": "amount",
          "type": "uint256"
        }
      ],
      "name": "burn",
      "outputs": [],
      "stateMutability": "nonpayable",
      "type": "function"
    },
    {
      "inputs": [
        {
          "internalType": "address",
          "name": "account",
          "type": "address"
        },
        {
          "internalType": "uint256",
          "name": "amount",
          "type": "uint256"
        }
      ],
      "name": "burnFrom",
      "outputs": [],
      "stateMutability": "nonpayable",
      "type": "function"
    },
    {
      "inputs": [],
      "name": "decimals",
      "outputs": [
        {
          "internalType": "uint8",
          "name": "",
          "type": "uint8"
        }
      ],
      "stateMutability": "view",
      "type": "function"
    },
    {
      "inputs": [
        {
          "internalType": "address",
          "name": "spender",
          "type": "address"
        },
        {
          "internalType": "uint256",
          "name": "subtractedValue",
          "type": "uint256"
        }
      ],
      "name": "decreaseAllowance",
      "outputs": [
        {
          "internalType": "bool",
          "name": "",
          "type": "bool"
        }
      ],
      "stateMutability": "nonpayable",
      "type": "function"
    },
    {
      "inputs": [
        {
          "internalType": "bytes32",
          "name": "role",
          "type": "bytes32"
        }
      ],
      "name": "getRoleAdmin",
      "outputs": [
        {
          "internalType": "bytes32",
          "name": "",
          "type": "bytes32"
        }
      ],
      "stateMutability": "view",
      "type": "function"
    },
    {
      "inputs": [
        {
          "internalType": "bytes32",
          "name": "role",
          "type": "bytes32"
        },
        {
          "internalType": "address",
          "name": "account",
          "type": "address"
        }
      ],
      "name": "grantRole",
      "outputs": [],
      "stateMutability": "nonpayable",
      "type": "function"
    },
    {
      "inputs": [
        {
          "internalType": "bytes32",
          "name": "role",
          "type": "bytes32"
        },
        {
          "internalType": "address",
          "name": "account",
          "type": "address"
        }
      ],
      "name": "hasRole",
      "outputs": [
        {
          "internalType": "bool",
          "name": "",
          "type": "bool"
        }
      ],
      "stateMutability": "view",
      "type": "function"
    },
    {
      "inputs": [
        {
          "internalType": "address",
          "name": "spender",
          "type": "address"
        },
        {
          "internalType": "uint256",
          "name": "addedValue",
          "type": "uint256"
        }
      ],
      "name": "increaseAllowance",
      "outputs": [
        {
          "internalType": "bool",
          "name": "",
          "type": "bool"
        }
      ],
      "stateMutability": "nonpayable",
      "type": "function"
    },
    {
      "inputs": [
        {
          "internalType": "address",
          "name": "to",
          "type": "address"
        },
        {
          "internalType": "uint256",
          "name": "amount",
          "type": "uint256"
        }
      ],
      "name": "mint",
      "outputs": [],
      "stateMutability": "nonpayable",
      "type": "function"
    },
    {
      "inputs": [],
      "name": "name",
      "outputs": [
        {
          "internalType": "string",
          "name": "",
          "type": "string"
        }
      ],
      "stateMutability": "view",
      "type": "function"
    },
    {
      "inputs": [],
      "name": "pause",
      "outputs": [],
      "stateMutability": "nonpayable",
      "type": "function"
    },
    {
      "inputs": [],
      "name": "paused",
      "outputs": [
        {
          "internalType": "bool",
          "name": "",
          "type": "bool"
        }
      ],
      "stateMutability": "view",
      "type": "function"
    },
    {
      "inputs": [
        {
          "internalType": "bytes32",
          "name": "role",
          "type": "bytes32"
        },
        {
          "internalType": "address",
          "name": "account",
          "type": "address"
        }
      ],
      "name": "renounceRole",
      "outputs": [],
      "stateMutability": "nonpayable",
      "type": "function"
    },
    {
      "inputs": [
        {
          "internalType": "bytes32",
          "name": "role",
          "type": "bytes32"
        },
        {
          "internalType": "address",
          "name": "account",
          "type": "address"
        }
      ],
      "name": "revokeRole",
      "outputs": [],
      "stateMutability": "nonpayable",
      "type": "function"
    },
    {
      "inputs": [
        {
          "internalType": "bytes4",
          "name": "interfaceId",
          "type": "bytes4"
        }
      ],
      "name": "supportsInterface",
      "outputs": [
        {
          "internalType": "bool",
          "name": "",
          "type": "bool"
        }
      ],
      "stateMutability": "view",
      "type": "function"
    },
    {
      "inputs": [],
      "name": "symbol",
      "outputs": [
        {
          "internalType": "string",
          "name": "",
          "type": "string"
        }
      ],
      "stateMutability": "view",
      "type": "function"
    },
    {
      "inputs": [],
      "name": "totalSupply",
      "outputs": [
        {
          "internalType": "uint256",
          "name": "",
          "type": "uint256"
        }
      ],
      "stateMutability": "view",
      "type": "function"
    },
    {
      "inputs": [
        {
          "internalType": "address",
          "name": "to",
          "type": "address"
        },
        {
          "internalType": "uint256",
          "name": "amount",
          "type": "uint256"
        }
      ],
      "name": "transfer",
      "outputs": [
        {
          "internalType": "bool",
          "name": "",
          "type": "bool"
        }
      ],
      "stateMutability": "nonpayable",
      "type": "function"
    },
    {
      "inputs": [
        {
          "internalType": "address",
          "name": "from",
          "type": "address"
        },
        {
          "internalType": "address",
          "name": "to",
          "type": "address"
        },
        {
          "internalType": "uint256",
          "name": "amount",
          "type": "uint256"
        }
      ],
      "name": "transferFrom",
      "outputs": [
        {
          "internalType": "bool",
          "name": "",
          "type": "bool"
        }
      ],
      "stateMutability": "nonpayable",
      "type": "function"
    },
    {
      "inputs": [],
      "name": "unpause",
      "outputs": [],
      "stateMutability": "nonpayable",
      "type": "function"
    }
  ],
  "bytecode": "0x60806040523480156200001157600080fd5b506040518060400160405280600581526020017f63617073610000000000000000000000000000000000000000000000000000008152506040518060400160405280600581526020017f434150534100000000000000000000000000000000000000000000000000000081525081600390805190602001906200009692919062000295565b508060049080519060200190620000af92919062000295565b5050506000600560006101000a81548160ff021916908315150217905550620000e26000801b336200011a60201b60201c565b620001147f65d7a28e3265b37a6474929f336521b332c1681b933f6cb9f3376673440d862a336200011a60201b60201c565b620003aa565b6200012c82826200013060201b60201c565b5050565b6200014282826200022260201b60201c565b6200021e5760016006600084815260200190815260200160002060000160008373ffffffffffffffffffffffffffffffffffffffff1673ffffffffffffffffffffffffffffffffffffffff16815260200190815260200160002060006101000a81548160ff021916908315150217905550620001c36200028d60201b60201c565b73ffffffffffffffffffffffffffffffffffffffff168173ffffffffffffffffffffffffffffffffffffffff16837f2f8788117e7eff1d82e926ec794901d17c78024a50270940304540a733656f0d60405160405180910390a45b5050565b60006006600084815260200190815260200160002060000160008373ffffffffffffffffffffffffffffffffffffffff1673ffffffffffffffffffffffffffffffffffffffff16815260200190815260200160002060009054906101000a900460ff16905092915050565b600033905090565b828054620002a39062000345565b90600052602060002090601f016020900481019282620002c7576000855562000313565b82601f10620002e257805160ff191683800117855562000313565b8280016001018555821562000313579182015b8281111562000312578251825591602001919060010190620002f5565b5b50905062000322919062000326565b5090565b5b808211156200034157600081600090555060010162000327565b5090565b600060028204905060018216806200035e57607f821691505b602082108114156200037557620003746200037b565b5b50919050565b7f4e487b7100000000000000000000000000000000000000000000000000000000600052602260045260246000fd5b61294880620003ba6000396000f3fe608060405234801561001057600080fd5b506004361061018e5760003560e01c80635c975abb116100de578063a217fddf11610097578063d539139311610071578063d539139314610497578063d547741f146104b5578063dd62ed3e146104d1578063e63ab1e9146105015761018e565b8063a217fddf14610419578063a457c2d714610437578063a9059cbb146104675761018e565b80635c975abb1461035757806370a082311461037557806379cc6790146103a55780638456cb59146103c157806391d14854146103cb57806395d89b41146103fb5761018e565b80632f2ff15d1161014b578063395093511161012557806339509351146102e55780633f4ba83a1461031557806340c10f191461031f57806342966c681461033b5761018e565b80632f2ff15d1461028f578063313ce567146102ab57806336568abe146102c95761018e565b806301ffc9a71461019357806306fdde03146101c3578063095ea7b3146101e157806318160ddd1461021157806323b872dd1461022f578063248a9ca31461025f575b600080fd5b6101ad60048036038101906101a89190611c62565b61051f565b6040516101ba9190611fee565b60405180910390f35b6101cb610599565b6040516101d89190612024565b60405180910390f35b6101fb60048036038101906101f69190611bc1565b61062b565b6040516102089190611fee565b60405180910390f35b61021961064e565b6040516102269190612206565b60405180910390f35b61024960048036038101906102449190611b72565b610658565b6040516102569190611fee565b60405180910390f35b61027960048036038101906102749190611bfd565b610687565b6040516102869190612009565b60405180910390f35b6102a960048036038101906102a49190611c26565b6106a7565b005b6102b36106c8565b6040516102c09190612221565b60405180910390f35b6102e360048036038101906102de9190611c26565b6106d1565b005b6102ff60048036038101906102fa9190611bc1565b610754565b60405161030c9190611fee565b60405180910390f35b61031d61078b565b005b61033960048036038101906103349190611bc1565b6107c0565b005b61035560048036038101906103509190611c8b565b6107f9565b005b61035f61080d565b60405161036c9190611fee565b60405180910390f35b61038f600480360381019061038a9190611b0d565b610824565b60405161039c9190612206565b60405180910390f35b6103bf60048036038101906103ba9190611bc1565b61086c565b005b6103c961088c565b005b6103e560048036038101906103e09190611c26565b6108c1565b6040516103f29190611fee565b60405180910390f35b61040361092c565b6040516104109190612024565b60405180910390f35b6104216109be565b60405161042e9190612009565b60405180910390f35b610451600480360381019061044c9190611bc1565b6109c5565b60405161045e9190611fee565b60405180910390f35b610481600480360381019061047c9190611bc1565b610a3c565b60405161048e9190611fee565b60405180910390f35b61049f610a5f565b6040516104ac9190612009565b60405180910390f35b6104cf60048036038101906104ca9190611c26565b610a83565b005b6104eb60048036038101906104e69190611b36565b610aa4565b6040516104f89190612206565b60405180910390f35b610509610b2b565b6040516105169190612009565b60405180910390f35b60007f7965db0b000000000000000000000000000000000000000000000000000000007bffffffffffffffffffffffffffffffffffffffffffffffffffffffff1916827bffffffffffffffffffffffffffffffffffffffffffffffffffffffff19161480610592575061059182610b4f565b5b9050919050565b6060600380546105a89061242f565b80601f01602080910402602001604051908101604052809291908181526020018280546105d49061242f565b80156106215780601f106105f657610100808354040283529160200191610621565b820191906000526020600020905b81548152906001019060200180831161060457829003601f168201915b5050505050905090565b600080610636610bb9565b9050610643818585610bc1565b600191505092915050565b6000600254905090565b600080610663610bb9565b9050610670858285610d8c565b61067b858585610e18565b60019150509392505050565b600060066000838152602001908152602001600020600101549050919050565b6106b082610687565b6106b981611099565b6106c383836110ad565b505050565b60006006905090565b6106d9610bb9565b73ffffffffffffffffffffffffffffffffffffffff168173ffffffffffffffffffffffffffffffffffffffff1614610746576040517f08c379a000000000000000000000000000000000000000000000000000000000815260040161073d906121c6565b60405180910390fd5b610750828261118e565b5050565b60008061075f610bb9565b90506107808185856107718589610aa4565b61077b9190612263565b610bc1565b600191505092915050565b7f65d7a28e3265b37a6474929f336521b332c1681b933f6cb9f3376673440d862a6107b581611099565b6107bd611270565b50565b7f9f2df0fed2c77648de5860a4cc508cd0818c85b8b8a1ab4ceeef8d981c8956a66107ea81611099565b6107f483836112d3565b505050565b61080a610804610bb9565b82611433565b50565b6000600560009054906101000a900460ff16905090565b60008060008373ffffffffffffffffffffffffffffffffffffffff1673ffffffffffffffffffffffffffffffffffffffff168152602001908152602001600020549050919050565b61087e82610878610bb9565b83610d8c565b6108888282611433565b5050565b7f65d7a28e3265b37a6474929f336521b332c1681b933f6cb9f3376673440d862a6108b681611099565b6108be61160a565b50565b60006006600084815260200190815260200160002060000160008373ffffffffffffffffffffffffffffffffffffffff1673ffffffffffffffffffffffffffffffffffffffff16815260200190815260200160002060009054906101000a900460ff16905092915050565b60606004805461093b9061242f565b80601f01602080910402602001604051908101604052809291908181526020018280546109679061242f565b80156109b45780601f10610989576101008083540402835291602001916109b4565b820191906000526020600020905b81548152906001019060200180831161099757829003601f168201915b5050505050905090565b6000801b81565b6000806109d0610bb9565b905060006109de8286610aa4565b905083811015610a23576040517f08c379a0000000000000000000000000000000000000000000000000000000008152600401610a1a906121a6565b60405180910390fd5b610a308286868403610bc1565b60019250505092915050565b600080610a47610bb9565b9050610a54818585610e18565b600191505092915050565b7f9f2df0fed2c77648de5860a4cc508cd0818c85b8b8a1ab4ceeef8d981c8956a681565b610a8c82610687565b610a9581611099565b610a9f838361118e565b505050565b6000600160008473ffffffffffffffffffffffffffffffffffffffff1673ffffffffffffffffffffffffffffffffffffffff16815260200190815260200160002060008373ffffffffffffffffffffffffffffffffffffffff1673ffffffffffffffffffffffffffffffffffffffff16815260200190815260200160002054905092915050565b7f65d7a28e3265b37a6474929f336521b332c1681b933f6cb9f3376673440d862a81565b60007f01ffc9a7000000000000000000000000000000000000000000000000000000007bffffffffffffffffffffffffffffffffffffffffffffffffffffffff1916827bffffffffffffffffffffffffffffffffffffffffffffffffffffffff1916149050919050565b600033905090565b600073ffffffffffffffffffffffffffffffffffffffff168373ffffffffffffffffffffffffffffffffffffffff161415610c31576040517f08c379a0000000000000000000000000000000000000000000000000000000008152600401610c2890612186565b60405180910390fd5b600073ffffffffffffffffffffffffffffffffffffffff168273ffffffffffffffffffffffffffffffffffffffff161415610ca1576040517f08c379a0000000000000000000000000000000000000000000000000000000008152600401610c98906120c6565b60405180910390fd5b80600160008573ffffffffffffffffffffffffffffffffffffffff1673ffffffffffffffffffffffffffffffffffffffff16815260200190815260200160002060008473ffffffffffffffffffffffffffffffffffffffff1673ffffffffffffffffffffffffffffffffffffffff168152602001908152602001600020819055508173ffffffffffffffffffffffffffffffffffffffff168373ffffffffffffffffffffffffffffffffffffffff167f8c5be1e5ebec7d5bd14f71427d1e84f3dd0314c0f7b2291e5b200ac8c7c3b92583604051610d7f9190612206565b60405180910390a3505050565b6000610d988484610aa4565b90507fffffffffffffffffffffffffffffffffffffffffffffffffffffffffffffffff8114610e125781811015610e04576040517f08c379a0000000000000000000000000000000000000000000000000000000008152600401610dfb906120e6565b60405180910390fd5b610e118484848403610bc1565b5b50505050565b600073ffffffffffffffffffffffffffffffffffffffff168373ffffffffffffffffffffffffffffffffffffffff161415610e88576040517f08c379a0000000000000000000000000000000000000000000000000000000008152600401610e7f90612166565b60405180910390fd5b600073ffffffffffffffffffffffffffffffffffffffff168273ffffffffffffffffffffffffffffffffffffffff161415610ef8576040517f08c379a0000000000000000000000000000000000000000000000000000000008152600401610eef90612066565b60405180910390fd5b610f0383838361166d565b60008060008573ffffffffffffffffffffffffffffffffffffffff1673ffffffffffffffffffffffffffffffffffffffff16815260200190815260200160002054905081811015610f89576040517f08c379a0000000000000000000000000000000000000000000000000000000008152600401610f8090612106565b60405180910390fd5b8181036000808673ffffffffffffffffffffffffffffffffffffffff1673ffffffffffffffffffffffffffffffffffffffff16815260200190815260200160002081905550816000808573ffffffffffffffffffffffffffffffffffffffff1673ffffffffffffffffffffffffffffffffffffffff168152602001908152602001600020600082825461101c9190612263565b925050819055508273ffffffffffffffffffffffffffffffffffffffff168473ffffffffffffffffffffffffffffffffffffffff167fddf252ad1be2c89b69c2b068fc378daa952ba7f163c4a11628f55a4df523b3ef846040516110809190612206565b60405180910390a3611093848484611685565b50505050565b6110aa816110a5610bb9565b61168a565b50565b6110b782826108c1565b61118a5760016006600084815260200190815260200160002060000160008373ffffffffffffffffffffffffffffffffffffffff1673ffffffffffffffffffffffffffffffffffffffff16815260200190815260200160002060006101000a81548160ff02191690831515021790555061112f610bb9565b73ffffffffffffffffffffffffffffffffffffffff168173ffffffffffffffffffffffffffffffffffffffff16837f2f8788117e7eff1d82e926ec794901d17c78024a50270940304540a733656f0d60405160405180910390a45b5050565b61119882826108c1565b1561126c5760006006600084815260200190815260200160002060000160008373ffffffffffffffffffffffffffffffffffffffff1673ffffffffffffffffffffffffffffffffffffffff16815260200190815260200160002060006101000a81548160ff021916908315150217905550611211610bb9565b73ffffffffffffffffffffffffffffffffffffffff168173ffffffffffffffffffffffffffffffffffffffff16837ff6391f5c32d9c69d2a47ea670b442974b53935d1edc7fd64eb21e047a839171b60405160405180910390a45b5050565b611278611727565b6000600560006101000a81548160ff0219169083151502179055507f5db9ee0a495bf2e6ff9c91a7834c1ba4fdd244a5e8aa4e537bd38aeae4b073aa6112bc610bb9565b6040516112c99190611fd3565b60405180910390a1565b600073ffffffffffffffffffffffffffffffffffffffff168273ffffffffffffffffffffffffffffffffffffffff161415611343576040517f08c379a000000000000000000000000000000000000000000000000000000000815260040161133a906121e6565b60405180910390fd5b61134f6000838361166d565b80600260008282546113619190612263565b92505081905550806000808473ffffffffffffffffffffffffffffffffffffffff1673ffffffffffffffffffffffffffffffffffffffff16815260200190815260200160002060008282546113b69190612263565b925050819055508173ffffffffffffffffffffffffffffffffffffffff16600073ffffffffffffffffffffffffffffffffffffffff167fddf252ad1be2c89b69c2b068fc378daa952ba7f163c4a11628f55a4df523b3ef8360405161141b9190612206565b60405180910390a361142f60008383611685565b5050565b600073ffffffffffffffffffffffffffffffffffffffff168273ffffffffffffffffffffffffffffffffffffffff1614156114a3576040517f08c379a000000000000000000000000000000000000000000000000000000000815260040161149a90612146565b60405180910390fd5b6114af8260008361166d565b60008060008473ffffffffffffffffffffffffffffffffffffffff1673ffffffffffffffffffffffffffffffffffffffff16815260200190815260200160002054905081811015611535576040517f08c379a000000000000000000000000000000000000000000000000000000000815260040161152c906120a6565b60405180910390fd5b8181036000808573ffffffffffffffffffffffffffffffffffffffff1673ffffffffffffffffffffffffffffffffffffffff16815260200190815260200160002081905550816002600082825461158c9190612313565b92505081905550600073ffffffffffffffffffffffffffffffffffffffff168373ffffffffffffffffffffffffffffffffffffffff167fddf252ad1be2c89b69c2b068fc378daa952ba7f163c4a11628f55a4df523b3ef846040516115f19190612206565b60405180910390a361160583600084611685565b505050565b611612611770565b6001600560006101000a81548160ff0219169083151502179055507f62e78cea01bee320cd4e420270b5ea74000d11b0c9f74754ebdbfc544b05a258611656610bb9565b6040516116639190611fd3565b60405180910390a1565b611675611770565b6116808383836117ba565b505050565b505050565b61169482826108c1565b611723576116b98173ffffffffffffffffffffffffffffffffffffffff1660146117bf565b6116c78360001c60206117bf565b6040516020016116d8929190611f99565b6040516020818303038152906040526040517f08c379a000000000000000000000000000000000000000000000000000000000815260040161171a9190612024565b60405180910390fd5b5050565b61172f61080d565b61176e576040517f08c379a000000000000000000000000000000000000000000000000000000000815260040161176590612086565b60405180910390fd5b565b61177861080d565b156117b8576040517f08c379a00000000000000000000000000000000000000000000000000000000081526004016117af90612126565b60405180910390fd5b565b505050565b6060600060028360026117d291906122b9565b6117dc9190612263565b67ffffffffffffffff81111561181b577f4e487b7100000000000000000000000000000000000000000000000000000000600052604160045260246000fd5b6040519080825280601f01601f19166020018201604052801561184d5781602001600182028036833780820191505090505b5090507f3000000000000000000000000000000000000000000000000000000000000000816000815181106118ab577f4e487b7100000000000000000000000000000000000000000000000000000000600052603260045260246000fd5b60200101907effffffffffffffffffffffffffffffffffffffffffffffffffffffffffffff1916908160001a9053507f780000000000000000000000000000000000000000000000000000000000000081600181518110611935577f4e487b7100000000000000000000000000000000000000000000000000000000600052603260045260246000fd5b60200101907effffffffffffffffffffffffffffffffffffffffffffffffffffffffffffff1916908160001a9053506000600184600261197591906122b9565b61197f9190612263565b90505b6001811115611a6b577f3031323334353637383961626364656600000000000000000000000000000000600f8616601081106119e7577f4e487b7100000000000000000000000000000000000000000000000000000000600052603260045260246000fd5b1a60f81b828281518110611a24577f4e487b7100000000000000000000000000000000000000000000000000000000600052603260045260246000fd5b60200101907effffffffffffffffffffffffffffffffffffffffffffffffffffffffffffff1916908160001a905350600485901c945080611a6490612405565b9050611982565b5060008414611aaf576040517f08c379a0000000000000000000000000000000000000000000000000000000008152600401611aa690612046565b60405180910390fd5b8091505092915050565b600081359050611ac8816128b6565b92915050565b600081359050611add816128cd565b92915050565b600081359050611af2816128e4565b92915050565b600081359050611b07816128fb565b92915050565b600060208284031215611b1f57600080fd5b6000611b2d84828501611ab9565b91505092915050565b60008060408385031215611b4957600080fd5b6000611b5785828601611ab9565b9250506020611b6885828601611ab9565b9150509250929050565b600080600060608486031215611b8757600080fd5b6000611b9586828701611ab9565b9350506020611ba686828701611ab9565b9250506040611bb786828701611af8565b9150509250925092565b60008060408385031215611bd457600080fd5b6000611be285828601611ab9565b9250506020611bf385828601611af8565b9150509250929050565b600060208284031215611c0f57600080fd5b6000611c1d84828501611ace565b91505092915050565b60008060408385031215611c3957600080fd5b6000611c4785828601611ace565b9250506020611c5885828601611ab9565b9150509250929050565b600060208284031215611c7457600080fd5b6000611c8284828501611ae3565b91505092915050565b600060208284031215611c9d57600080fd5b6000611cab84828501611af8565b91505092915050565b611cbd81612347565b82525050565b611ccc81612359565b82525050565b611cdb81612365565b82525050565b6000611cec8261223c565b611cf68185612247565b9350611d068185602086016123d2565b611d0f816124bf565b840191505092915050565b6000611d258261223c565b611d2f8185612258565b9350611d3f8185602086016123d2565b80840191505092915050565b6000611d58602083612247565b9150611d63826124d0565b602082019050919050565b6000611d7b602383612247565b9150611d86826124f9565b604082019050919050565b6000611d9e601483612247565b9150611da982612548565b602082019050919050565b6000611dc1602283612247565b9150611dcc82612571565b604082019050919050565b6000611de4602283612247565b9150611def826125c0565b604082019050919050565b6000611e07601d83612247565b9150611e128261260f565b602082019050919050565b6000611e2a602683612247565b9150611e3582612638565b604082019050919050565b6000611e4d601083612247565b9150611e5882612687565b602082019050919050565b6000611e70602183612247565b9150611e7b826126b0565b604082019050919050565b6000611e93602583612247565b9150611e9e826126ff565b604082019050919050565b6000611eb6602483612247565b9150611ec18261274e565b604082019050919050565b6000611ed9601783612258565b9150611ee48261279d565b601782019050919050565b6000611efc602583612247565b9150611f07826127c6565b604082019050919050565b6000611f1f601183612258565b9150611f2a82612815565b601182019050919050565b6000611f42602f83612247565b9150611f4d8261283e565b604082019050919050565b6000611f65601f83612247565b9150611f708261288d565b602082019050919050565b611f84816123bb565b82525050565b611f93816123c5565b82525050565b6000611fa482611ecc565b9150611fb08285611d1a565b9150611fbb82611f12565b9150611fc78284611d1a565b91508190509392505050565b6000602082019050611fe86000830184611cb4565b92915050565b60006020820190506120036000830184611cc3565b92915050565b600060208201905061201e6000830184611cd2565b92915050565b6000602082019050818103600083015261203e8184611ce1565b905092915050565b6000602082019050818103600083015261205f81611d4b565b9050919050565b6000602082019050818103600083015261207f81611d6e565b9050919050565b6000602082019050818103600083015261209f81611d91565b9050919050565b600060208201905081810360008301526120bf81611db4565b9050919050565b600060208201905081810360008301526120df81611dd7565b9050919050565b600060208201905081810360008301526120ff81611dfa565b9050919050565b6000602082019050818103600083015261211f81611e1d565b9050919050565b6000602082019050818103600083015261213f81611e40565b9050919050565b6000602082019050818103600083015261215f81611e63565b9050919050565b6000602082019050818103600083015261217f81611e86565b9050919050565b6000602082019050818103600083015261219f81611ea9565b9050919050565b600060208201905081810360008301526121bf81611eef565b9050919050565b600060208201905081810360008301526121df81611f35565b9050919050565b600060208201905081810360008301526121ff81611f58565b9050919050565b600060208201905061221b6000830184611f7b565b92915050565b60006020820190506122366000830184611f8a565b92915050565b600081519050919050565b600082825260208201905092915050565b600081905092915050565b600061226e826123bb565b9150612279836123bb565b9250827fffffffffffffffffffffffffffffffffffffffffffffffffffffffffffffffff038211156122ae576122ad612461565b5b828201905092915050565b60006122c4826123bb565b91506122cf836123bb565b9250817fffffffffffffffffffffffffffffffffffffffffffffffffffffffffffffffff048311821515161561230857612307612461565b5b828202905092915050565b600061231e826123bb565b9150612329836123bb565b92508282101561233c5761233b612461565b5b828203905092915050565b60006123528261239b565b9050919050565b60008115159050919050565b6000819050919050565b60007fffffffff0000000000000000000000000000000000000000000000000000000082169050919050565b600073ffffffffffffffffffffffffffffffffffffffff82169050919050565b6000819050919050565b600060ff82169050919050565b60005b838110156123f05780820151818401526020810190506123d5565b838111156123ff576000848401525b50505050565b6000612410826123bb565b9150600082141561242457612423612461565b5b600182039050919050565b6000600282049050600182168061244757607f821691505b6020821081141561245b5761245a612490565b5b50919050565b7f4e487b7100000000000000000000000000000000000000000000000000000000600052601160045260246000fd5b7f4e487b7100000000000000000000000000000000000000000000000000000000600052602260045260246000fd5b6000601f19601f8301169050919050565b7f537472696e67733a20686578206c656e67746820696e73756666696369656e74600082015250565b7f45524332303a207472616e7366657220746f20746865207a65726f206164647260008201527f6573730000000000000000000000000000000000000000000000000000000000602082015250565b7f5061757361626c653a206e6f7420706175736564000000000000000000000000600082015250565b7f45524332303a206275726e20616d6f756e7420657863656564732062616c616e60008201527f6365000000000000000000000000000000000000000000000000000000000000602082015250565b7f45524332303a20617070726f766520746f20746865207a65726f20616464726560008201527f7373000000000000000000000000000000000000000000000000000000000000602082015250565b7f45524332303a20696e73756666696369656e7420616c6c6f77616e6365000000600082015250565b7f45524332303a207472616e7366657220616d6f756e742065786365656473206260008201527f616c616e63650000000000000000000000000000000000000000000000000000602082015250565b7f5061757361626c653a2070617573656400000000000000000000000000000000600082015250565b7f45524332303a206275726e2066726f6d20746865207a65726f2061646472657360008201527f7300000000000000000000000000000000000000000000000000000000000000602082015250565b7f45524332303a207472616e736665722066726f6d20746865207a65726f20616460008201527f6472657373000000000000000000000000000000000000000000000000000000602082015250565b7f45524332303a20617070726f76652066726f6d20746865207a65726f2061646460008201527f7265737300000000000000000000000000000000000000000000000000000000602082015250565b7f416363657373436f6e74726f6c3a206163636f756e7420000000000000000000600082015250565b7f45524332303a2064656372656173656420616c6c6f77616e63652062656c6f7760008201527f207a65726f000000000000000000000000000000000000000000000000000000602082015250565b7f206973206d697373696e6720726f6c6520000000000000000000000000000000600082015250565b7f416363657373436f6e74726f6c3a2063616e206f6e6c792072656e6f756e636560008201527f20726f6c657320666f722073656c660000000000000000000000000000000000602082015250565b7f45524332303a206d696e7420746f20746865207a65726f206164647265737300600082015250565b6128bf81612347565b81146128ca57600080fd5b50565b6128d681612365565b81146128e157600080fd5b50565b6128ed8161236f565b81146128f857600080fd5b50565b612904816123bb565b811461290f57600080fd5b5056fea26469706673582212207531e28997590aa742a9f459b700acc8799eb991840b97f618c8d0f08c72828464736f6c63430008040033",
  "linkReferences": {},
  "deployedLinkReferences": {}
}