{
  "_format": "hh-sol-artifact-1",
  "contractName": "CapsaSwap",
  "sourceName": "contracts/contractCapsaToken.sol",
  "abi": [
    {
      "inputs": [
        {
          "internalType": "address",
          "name": "_USDCAddress",
          "type": "address"
        },
        {
          "internalType": "address",
          "name": "_CAPSAAddress",
          "type": "address"
        },
        {
          "internalType": "address",
          "name": "_fundWallet",
          "type": "address"
        },
        {
          "internalType": "address",
          "name": "_feeWallet",
          "type": "address"
        }
      ],
      "stateMutability": "nonpayable",
      "type": "constructor"
    },
    {
      "anonymous": false,
      "inputs": [],
      "name": "NoLiquidityForFee",
      "type": "event"
    },
    {
      "anonymous": false,
      "inputs": [
        {
          "indexed": false,
          "internalType": "address",
          "name": "account",
          "type": "address"
        }
      ],
      "name": "Paused",
      "type": "event"
    },
    {
      "anonymous": false,
      "inputs": [
        {
          "indexed": false,
          "internalType": "address",
          "name": "account",
          "type": "address"
        }
      ],
      "name": "Unpaused",
      "type": "event"
    },
    {
      "inputs": [
        {
          "internalType": "uint256",
          "name": "amountUSDC",
          "type": "uint256"
        }
      ],
      "name": "buyCAPSA",
      "outputs": [],
      "stateMutability": "nonpayable",
      "type": "function"
    },
    {
      "inputs": [
        {
          "internalType": "uint256",
          "name": "amountUSDC",
          "type": "uint256"
        }
      ],
      "name": "getAmountCAPSA",
      "outputs": [
        {
          "internalType": "uint256",
          "name": "",
          "type": "uint256"
        }
      ],
      "stateMutability": "view",
      "type": "function"
    },
    {
      "inputs": [
        {
          "internalType": "uint256",
          "name": "amountCAPSA",
          "type": "uint256"
        }
      ],
      "name": "getAmountUSDC",
      "outputs": [
        {
          "internalType": "uint256",
          "name": "",
          "type": "uint256"
        }
      ],
      "stateMutability": "view",
      "type": "function"
    },
    {
      "inputs": [],
      "name": "getPrice",
      "outputs": [
        {
          "internalType": "uint256",
          "name": "",
          "type": "uint256"
        }
      ],
      "stateMutability": "view",
      "type": "function"
    },
    {
      "inputs": [],
      "name": "pause",
      "outputs": [],
      "stateMutability": "nonpayable",
      "type": "function"
    },
    {
      "inputs": [],
      "name": "paused",
      "outputs": [
        {
          "internalType": "bool",
          "name": "",
          "type": "bool"
        }
      ],
      "stateMutability": "view",
      "type": "function"
    },
    {
      "inputs": [
        {
          "internalType": "uint256",
          "name": "amountCAPSA",
          "type": "uint256"
        }
      ],
      "name": "sellCAPSA",
      "outputs": [],
      "stateMutability": "nonpayable",
      "type": "function"
    },
    {
      "inputs": [
        {
          "internalType": "uint256",
          "name": "newCapital",
          "type": "uint256"
        }
      ],
      "name": "setCapital",
      "outputs": [],
      "stateMutability": "nonpayable",
      "type": "function"
    },
    {
      "inputs": [],
      "name": "unpause",
      "outputs": [],
      "stateMutability": "nonpayable",
      "type": "function"
    }
  ],
  "bytecode": "0x60806040526000600260006101000a81548173ffffffffffffffffffffffffffffffffffffffff021916908373ffffffffffffffffffffffffffffffffffffffff1602179055506000600360006101000a81548173ffffffffffffffffffffffffffffffffffffffff021916908373ffffffffffffffffffffffffffffffffffffffff1602179055506000600460006101000a81548173ffffffffffffffffffffffffffffffffffffffff021916908373ffffffffffffffffffffffffffffffffffffffff1602179055506000600560006101000a81548173ffffffffffffffffffffffffffffffffffffffff021916908373ffffffffffffffffffffffffffffffffffffffff1602179055506000600660006101000a81548173ffffffffffffffffffffffffffffffffffffffff021916908373ffffffffffffffffffffffffffffffffffffffff16021790555060006007556006600855600854600a620001699190620007d9565b600162000177919062000916565b6009556014600a5562093a80600b556000600c556000600d556000600e55348015620001a257600080fd5b5060405162002c9938038062002c998339818101604052810190620001c8919062000594565b60008060006101000a81548160ff02191690831515021790555060018081905550600073ffffffffffffffffffffffffffffffffffffffff168473ffffffffffffffffffffffffffffffffffffffff1614156200025c576040517f08c379a000000000000000000000000000000000000000000000000000000000815260040162000253906200074b565b60405180910390fd5b600073ffffffffffffffffffffffffffffffffffffffff168373ffffffffffffffffffffffffffffffffffffffff161415620002cf576040517f08c379a0000000000000000000000000000000000000000000000000000000008152600401620002c69062000707565b60405180910390fd5b600073ffffffffffffffffffffffffffffffffffffffff168273ffffffffffffffffffffffffffffffffffffffff16141562000342576040517f08c379a00000000000000000000000000000000000000000000000000000000081526004016200033990620006e5565b60405180910390fd5b600073ffffffffffffffffffffffffffffffffffffffff168173ffffffffffffffffffffffffffffffffffffffff161415620003b5576040517f08c379a0000000000000000000000000000000000000000000000000000000008152600401620003ac90620006c3565b60405180910390fd5b8173ffffffffffffffffffffffffffffffffffffffff168173ffffffffffffffffffffffffffffffffffffffff16141562000427576040517f08c379a00000000000000000000000000000000000000000000000000000000081526004016200041e9062000729565b60405180910390fd5b83600260006101000a81548173ffffffffffffffffffffffffffffffffffffffff021916908373ffffffffffffffffffffffffffffffffffffffff16021790555082600360006101000a81548173ffffffffffffffffffffffffffffffffffffffff021916908373ffffffffffffffffffffffffffffffffffffffff16021790555081600460006101000a81548173ffffffffffffffffffffffffffffffffffffffff021916908373ffffffffffffffffffffffffffffffffffffffff16021790555080600560006101000a81548173ffffffffffffffffffffffffffffffffffffffff021916908373ffffffffffffffffffffffffffffffffffffffff16021790555033600660006101000a81548173ffffffffffffffffffffffffffffffffffffffff021916908373ffffffffffffffffffffffffffffffffffffffff16021790555042600c819055505050505062000b96565b6000815190506200058e8162000b7c565b92915050565b60008060008060808587031215620005ab57600080fd5b6000620005bb878288016200057d565b9450506020620005ce878288016200057d565b9350506040620005e1878288016200057d565b9250506060620005f4878288016200057d565b91505092959194509250565b60006200060f6021836200076d565b91506200061c82620009f1565b604082019050919050565b6000620006366022836200076d565b9150620006438262000a40565b604082019050919050565b60006200065d6025836200076d565b91506200066a8262000a8f565b604082019050919050565b6000620006846031836200076d565b9150620006918262000ade565b604082019050919050565b6000620006ab6024836200076d565b9150620006b88262000b2d565b604082019050919050565b60006020820190508181036000830152620006de8162000600565b9050919050565b60006020820190508181036000830152620007008162000627565b9050919050565b6000602082019050818103600083015262000722816200064e565b9050919050565b60006020820190508181036000830152620007448162000675565b9050919050565b6000602082019050818103600083015262000766816200069c565b9050919050565b600082825260208201905092915050565b6000808291508390505b6001851115620007d057808604811115620007a857620007a7620009b5565b5b6001851615620007b85780820291505b8081029050620007c885620009e4565b945062000788565b94509492505050565b6000620007e682620009ab565b9150620007f383620009ab565b9250620008227fffffffffffffffffffffffffffffffffffffffffffffffffffffffffffffffff84846200082a565b905092915050565b6000826200083c57600190506200090f565b816200084c57600090506200090f565b81600181146200086557600281146200087057620008a6565b60019150506200090f565b60ff841115620008855762000884620009b5565b5b8360020a9150848211156200089f576200089e620009b5565b5b506200090f565b5060208310610133831016604e8410600b8410161715620008e05782820a905083811115620008da57620008d9620009b5565b5b6200090f565b620008ef84848460016200077e565b92509050818404811115620009095762000908620009b5565b5b81810290505b9392505050565b60006200092382620009ab565b91506200093083620009ab565b9250817fffffffffffffffffffffffffffffffffffffffffffffffffffffffffffffffff04831182151516156200096c576200096b620009b5565b5b828202905092915050565b600062000984826200098b565b9050919050565b600073ffffffffffffffffffffffffffffffffffffffff82169050919050565b6000819050919050565b7f4e487b7100000000000000000000000000000000000000000000000000000000600052601160045260246000fd5b60008160011c9050919050565b7f4665652077616c6c657420616464726573732063616e6e6f742062652030783060008201527f2e00000000000000000000000000000000000000000000000000000000000000602082015250565b7f46756e642077616c6c657420616464726573732063616e6e6f7420626520307860008201527f302e000000000000000000000000000000000000000000000000000000000000602082015250565b7f434150534120636f6e747261637420616464726573732063616e6e6f7420626560008201527f203078302e000000000000000000000000000000000000000000000000000000602082015250565b7f4665652077616c6c65742063616e6e6f74206265207468652073616d6520617360008201527f207468652066756e642077616c6c65742e000000000000000000000000000000602082015250565b7f5553444320636f6e747261637420616464726573732063616e6e6f742062652060008201527f3078302e00000000000000000000000000000000000000000000000000000000602082015250565b62000b878162000977565b811462000b9357600080fd5b50565b6120f38062000ba66000396000f3fe608060405234801561001057600080fd5b50600436106100935760003560e01c806398d5fdca1161006657806398d5fdca146100e6578063a196450b14610104578063a7e2c4d214610120578063fc312c6f14610150578063fe9d83231461018057610093565b80631a674419146100985780633f4ba83a146100b45780635c975abb146100be5780638456cb59146100dc575b600080fd5b6100b260048036038101906100ad91906114c2565b61019c565b005b6100bc610207565b005b6100c66102a1565b6040516100d39190611789565b60405180910390f35b6100e46102b7565b005b6100ee610351565b6040516100fb9190611924565b60405180910390f35b61011e600480360381019061011991906114c2565b61046a565b005b61013a600480360381019061013591906114c2565b610558565b6040516101479190611924565b60405180910390f35b61016a600480360381019061016591906114c2565b6105bc565b6040516101779190611924565b60405180910390f35b61019a600480360381019061019591906114c2565b6105fc565b005b6101a4610b66565b600260015414156101ea576040517f08c379a00000000000000000000000000000000000000000000000000000000081526004016101e190611904565b60405180910390fd5b60026001819055506101fd333383610bb0565b6001808190555050565b600660009054906101000a900473ffffffffffffffffffffffffffffffffffffffff1673ffffffffffffffffffffffffffffffffffffffff163373ffffffffffffffffffffffffffffffffffffffff1614610297576040517f08c379a000000000000000000000000000000000000000000000000000000000815260040161028e906118c4565b60405180910390fd5b61029f61100d565b565b60008060009054906101000a900460ff16905090565b600660009054906101000a900473ffffffffffffffffffffffffffffffffffffffff1673ffffffffffffffffffffffffffffffffffffffff163373ffffffffffffffffffffffffffffffffffffffff1614610347576040517f08c379a000000000000000000000000000000000000000000000000000000000815260040161033e906118c4565b60405180910390fd5b61034f61106f565b565b600080600360009054906101000a900473ffffffffffffffffffffffffffffffffffffffff16905060008173ffffffffffffffffffffffffffffffffffffffff166318160ddd6040518163ffffffff1660e01b815260040160206040518083038186803b1580156103c157600080fd5b505afa1580156103d5573d6000803e3d6000fd5b505050506040513d601f19601f820116820180604052508101906103f991906114eb565b90506000600160085461040c9190611950565b600a6104189190611a2a565b6007546104259190611b48565b9050600082141561043d576009549350505050610467565b600a6005838361044d91906119a6565b6104579190611950565b61046191906119a6565b93505050505b90565b600660009054906101000a900473ffffffffffffffffffffffffffffffffffffffff1673ffffffffffffffffffffffffffffffffffffffff163373ffffffffffffffffffffffffffffffffffffffff16146104fa576040517f08c379a00000000000000000000000000000000000000000000000000000000081526004016104f1906118c4565b60405180910390fd5b610502610b66565b806007819055506000600e54141561051c5780600e819055505b6000600d5414156105365761052f610351565b600d819055505b600b54600c54426105479190611c36565b10610555576105546110d1565b5b50565b600080610563610351565b90506000600a600583600160085461057b9190611950565b600a6105879190611a2a565b876105929190611b48565b61059c91906119a6565b6105a69190611950565b6105b091906119a6565b90508092505050919050565b6000806105c7610351565b90506000600854600a6105da9190611a2a565b82856105e69190611b48565b6105f091906119a6565b90508092505050919050565b610604610b66565b6002600154141561064a576040517f08c379a000000000000000000000000000000000000000000000000000000000815260040161064190611904565b60405180910390fd5b60026001819055506000600360009054906101000a900473ffffffffffffffffffffffffffffffffffffffff1690506000600260009054906101000a900473ffffffffffffffffffffffffffffffffffffffff169050828273ffffffffffffffffffffffffffffffffffffffff1663dd62ed3e33306040518363ffffffff1660e01b81526004016106dc929190611700565b60206040518083038186803b1580156106f457600080fd5b505afa158015610708573d6000803e3d6000fd5b505050506040513d601f19601f8201168201806040525081019061072c91906114eb565b101561076d576040517f08c379a000000000000000000000000000000000000000000000000000000000815260040161076490611884565b60405180910390fd5b828273ffffffffffffffffffffffffffffffffffffffff166370a08231336040518263ffffffff1660e01b81526004016107a791906116e5565b60206040518083038186803b1580156107bf57600080fd5b505afa1580156107d3573d6000803e3d6000fd5b505050506040513d601f19601f820116820180604052508101906107f791906114eb565b1015610838576040517f08c379a000000000000000000000000000000000000000000000000000000000815260040161082f90611844565b60405180910390fd5b6000610843846105bc565b9050808273ffffffffffffffffffffffffffffffffffffffff166370a08231600460009054906101000a900473ffffffffffffffffffffffffffffffffffffffff166040518263ffffffff1660e01b81526004016108a191906116e5565b60206040518083038186803b1580156108b957600080fd5b505afa1580156108cd573d6000803e3d6000fd5b505050506040513d601f19601f820116820180604052508101906108f191906114eb565b1015610932576040517f08c379a0000000000000000000000000000000000000000000000000000000008152600401610929906117e4565b60405180910390fd5b808273ffffffffffffffffffffffffffffffffffffffff1663dd62ed3e600460009054906101000a900473ffffffffffffffffffffffffffffffffffffffff16306040518363ffffffff1660e01b8152600401610990929190611700565b60206040518083038186803b1580156109a857600080fd5b505afa1580156109bc573d6000803e3d6000fd5b505050506040513d601f19601f820116820180604052508101906109e091906114eb565b1015610a21576040517f08c379a0000000000000000000000000000000000000000000000000000000008152600401610a18906118e4565b60405180910390fd5b8273ffffffffffffffffffffffffffffffffffffffff166379cc679033866040518363ffffffff1660e01b8152600401610a5c929190611760565b600060405180830381600087803b158015610a7657600080fd5b505af1158015610a8a573d6000803e3d6000fd5b505050508173ffffffffffffffffffffffffffffffffffffffff166323b872dd600460009054906101000a900473ffffffffffffffffffffffffffffffffffffffff1633846040518463ffffffff1660e01b8152600401610aed93929190611729565b602060405180830381600087803b158015610b0757600080fd5b505af1158015610b1b573d6000803e3d6000fd5b505050506040513d601f19601f82011682018060405250810190610b3f9190611499565b508060076000828254610b529190611c36565b925050819055505050506001808190555050565b610b6e6102a1565b15610bae576040517f08c379a0000000000000000000000000000000000000000000000000000000008152600401610ba590611864565b60405180910390fd5b565b610bb8610b66565b6000600360009054906101000a900473ffffffffffffffffffffffffffffffffffffffff1690506000600260009054906101000a900473ffffffffffffffffffffffffffffffffffffffff169050828173ffffffffffffffffffffffffffffffffffffffff1663dd62ed3e87306040518363ffffffff1660e01b8152600401610c42929190611700565b60206040518083038186803b158015610c5a57600080fd5b505afa158015610c6e573d6000803e3d6000fd5b505050506040513d601f19601f82011682018060405250810190610c9291906114eb565b1015610cd3576040517f08c379a0000000000000000000000000000000000000000000000000000000008152600401610cca906118a4565b60405180910390fd5b828173ffffffffffffffffffffffffffffffffffffffff166370a08231876040518263ffffffff1660e01b8152600401610d0d91906116e5565b60206040518083038186803b158015610d2557600080fd5b505afa158015610d39573d6000803e3d6000fd5b505050506040513d601f19601f82011682018060405250810190610d5d91906114eb565b1015610d9e576040517f08c379a0000000000000000000000000000000000000000000000000000000008152600401610d95906117c4565b60405180910390fd5b600460009054906101000a900473ffffffffffffffffffffffffffffffffffffffff1673ffffffffffffffffffffffffffffffffffffffff168473ffffffffffffffffffffffffffffffffffffffff161415610e2f576040517f08c379a0000000000000000000000000000000000000000000000000000000008152600401610e2690611824565b60405180910390fd5b600660009054906101000a900473ffffffffffffffffffffffffffffffffffffffff1673ffffffffffffffffffffffffffffffffffffffff168473ffffffffffffffffffffffffffffffffffffffff161415610ec0576040517f08c379a0000000000000000000000000000000000000000000000000000000008152600401610eb790611804565b60405180910390fd5b6000610ecb84610558565b90508173ffffffffffffffffffffffffffffffffffffffff166323b872dd87600460009054906101000a900473ffffffffffffffffffffffffffffffffffffffff16876040518463ffffffff1660e01b8152600401610f2c93929190611729565b602060405180830381600087803b158015610f4657600080fd5b505af1158015610f5a573d6000803e3d6000fd5b505050506040513d601f19601f82011682018060405250810190610f7e9190611499565b508273ffffffffffffffffffffffffffffffffffffffff166340c10f1986836040518363ffffffff1660e01b8152600401610fba929190611760565b600060405180830381600087803b158015610fd457600080fd5b505af1158015610fe8573d6000803e3d6000fd5b505050508360076000828254610ffe9190611950565b92505081905550505050505050565b611015611409565b60008060006101000a81548160ff0219169083151502179055507f5db9ee0a495bf2e6ff9c91a7834c1ba4fdd244a5e8aa4e537bd38aeae4b073aa611058611452565b60405161106591906116e5565b60405180910390a1565b611077610b66565b60016000806101000a81548160ff0219169083151502179055507f62e78cea01bee320cd4e420270b5ea74000d11b0c9f74754ebdbfc544b05a2586110ba611452565b6040516110c791906116e5565b60405180910390a1565b6000600260009054906101000a900473ffffffffffffffffffffffffffffffffffffffff1690506000611102610351565b90506000600d54826111149190611ba2565b905060008113156113ec576000620f4240600e54836111339190611b48565b61113d91906119a6565b905060006064600a54836111519190611b48565b61115b91906119a6565b9050808573ffffffffffffffffffffffffffffffffffffffff166370a08231600460009054906101000a900473ffffffffffffffffffffffffffffffffffffffff166040518263ffffffff1660e01b81526004016111b991906116e5565b60206040518083038186803b1580156111d157600080fd5b505afa1580156111e5573d6000803e3d6000fd5b505050506040513d601f19601f8201168201806040525081019061120991906114eb565b101580156112c35750808573ffffffffffffffffffffffffffffffffffffffff1663dd62ed3e600460009054906101000a900473ffffffffffffffffffffffffffffffffffffffff16306040518363ffffffff1660e01b8152600401611270929190611700565b60206040518083038186803b15801561128857600080fd5b505afa15801561129c573d6000803e3d6000fd5b505050506040513d601f19601f820116820180604052508101906112c091906114eb565b10155b156113b8578473ffffffffffffffffffffffffffffffffffffffff166323b872dd600460009054906101000a900473ffffffffffffffffffffffffffffffffffffffff16600560009054906101000a900473ffffffffffffffffffffffffffffffffffffffff16846040518463ffffffff1660e01b815260040161134993929190611729565b602060405180830381600087803b15801561136357600080fd5b505af1158015611377573d6000803e3d6000fd5b505050506040513d601f19601f8201168201806040525081019061139b9190611499565b5083600d81905550600754600e8190555042600c819055506113e5565b7f863cc278edd824c787001042282d2d07dd5ed6f835f25143e945a67ac2bfac9f60405160405180910390a15b5050611404565b81600d81905550600754600e8190555042600c819055505b505050565b6114116102a1565b611450576040517f08c379a0000000000000000000000000000000000000000000000000000000008152600401611447906117a4565b60405180910390fd5b565b600033905090565b6000815190506114698161208f565b92915050565b60008135905061147e816120a6565b92915050565b600081519050611493816120a6565b92915050565b6000602082840312156114ab57600080fd5b60006114b98482850161145a565b91505092915050565b6000602082840312156114d457600080fd5b60006114e28482850161146f565b91505092915050565b6000602082840312156114fd57600080fd5b600061150b84828501611484565b91505092915050565b61151d81611c6a565b82525050565b61152c81611c7c565b82525050565b600061153f60148361193f565b915061154a82611d27565b602082019050919050565b600061156260308361193f565b915061156d82611d50565b604082019050919050565b600061158560368361193f565b915061159082611d9f565b604082019050919050565b60006115a860208361193f565b91506115b382611dee565b602082019050919050565b60006115cb60258361193f565b91506115d682611e17565b604082019050919050565b60006115ee60318361193f565b91506115f982611e66565b604082019050919050565b600061161160108361193f565b915061161c82611eb5565b602082019050919050565b600061163460538361193f565b915061163f82611ede565b606082019050919050565b600061165760528361193f565b915061166282611f53565b606082019050919050565b600061167a60368361193f565b915061168582611fc8565b604082019050919050565b600061169d603f8361193f565b91506116a882612017565b604082019050919050565b60006116c0601f8361193f565b91506116cb82612066565b602082019050919050565b6116df81611cb2565b82525050565b60006020820190506116fa6000830184611514565b92915050565b60006040820190506117156000830185611514565b6117226020830184611514565b9392505050565b600060608201905061173e6000830186611514565b61174b6020830185611514565b61175860408301846116d6565b949350505050565b60006040820190506117756000830185611514565b61178260208301846116d6565b9392505050565b600060208201905061179e6000830184611523565b92915050565b600060208201905081810360008301526117bd81611532565b9050919050565b600060208201905081810360008301526117dd81611555565b9050919050565b600060208201905081810360008301526117fd81611578565b9050919050565b6000602082019050818103600083015261181d8161159b565b9050919050565b6000602082019050818103600083015261183d816115be565b9050919050565b6000602082019050818103600083015261185d816115e1565b9050919050565b6000602082019050818103600083015261187d81611604565b9050919050565b6000602082019050818103600083015261189d81611627565b9050919050565b600060208201905081810360008301526118bd8161164a565b9050919050565b600060208201905081810360008301526118dd8161166d565b9050919050565b600060208201905081810360008301526118fd81611690565b9050919050565b6000602082019050818103600083015261191d816116b3565b9050919050565b600060208201905061193960008301846116d6565b92915050565b600082825260208201905092915050565b600061195b82611cb2565b915061196683611cb2565b9250827fffffffffffffffffffffffffffffffffffffffffffffffffffffffffffffffff0382111561199b5761199a611cbc565b5b828201905092915050565b60006119b182611cb2565b91506119bc83611cb2565b9250826119cc576119cb611ceb565b5b828204905092915050565b6000808291508390505b6001851115611a21578086048111156119fd576119fc611cbc565b5b6001851615611a0c5780820291505b8081029050611a1a85611d1a565b94506119e1565b94509492505050565b6000611a3582611cb2565b9150611a4083611cb2565b9250611a6d7fffffffffffffffffffffffffffffffffffffffffffffffffffffffffffffffff8484611a75565b905092915050565b600082611a855760019050611b41565b81611a935760009050611b41565b8160018114611aa95760028114611ab357611ae2565b6001915050611b41565b60ff841115611ac557611ac4611cbc565b5b8360020a915084821115611adc57611adb611cbc565b5b50611b41565b5060208310610133831016604e8410600b8410161715611b175782820a905083811115611b1257611b11611cbc565b5b611b41565b611b2484848460016119d7565b92509050818404811115611b3b57611b3a611cbc565b5b81810290505b9392505050565b6000611b5382611cb2565b9150611b5e83611cb2565b9250817fffffffffffffffffffffffffffffffffffffffffffffffffffffffffffffffff0483118215151615611b9757611b96611cbc565b5b828202905092915050565b6000611bad82611c88565b9150611bb883611c88565b9250827f800000000000000000000000000000000000000000000000000000000000000001821260008412151615611bf357611bf2611cbc565b5b827f7fffffffffffffffffffffffffffffffffffffffffffffffffffffffffffffff018213600084121615611c2b57611c2a611cbc565b5b828203905092915050565b6000611c4182611cb2565b9150611c4c83611cb2565b925082821015611c5f57611c5e611cbc565b5b828203905092915050565b6000611c7582611c92565b9050919050565b60008115159050919050565b6000819050919050565b600073ffffffffffffffffffffffffffffffffffffffff82169050919050565b6000819050919050565b7f4e487b7100000000000000000000000000000000000000000000000000000000600052601160045260246000fd5b7f4e487b7100000000000000000000000000000000000000000000000000000000600052601260045260246000fd5b60008160011c9050919050565b7f5061757361626c653a206e6f7420706175736564000000000000000000000000600082015250565b7f596f7520646f6e2774206861766520656e6f756768205553444320666f72207460008201527f686973207472616e73616374696f6e2e00000000000000000000000000000000602082015250565b7f546e652066756e6420646f65736e2774206f776e20656e6f756768205553444360008201527f20666f722074686973207472616e73616374696f6e2e00000000000000000000602082015250565b7f4f776e65722063616e27742062757920746f6b656e73206469726563746c792e600082015250565b7f63617073612066756e642063616e27742062757920746f6b656e73206469726560008201527f63746c792e000000000000000000000000000000000000000000000000000000602082015250565b7f596f7520646f6e2774206861766520656e6f75676820434150534120666f722060008201527f74686973207472616e73616374696f6e2e000000000000000000000000000000602082015250565b7f5061757361626c653a2070617573656400000000000000000000000000000000600082015250565b7f596f7520686176656e277420616c6c6f77656420656e6f75676820434150534160008201527f20746f206265207370656e74206279207468697320636f6e747261637420666f60208201527f722074686973207472616e73616374696f6e2e00000000000000000000000000604082015250565b7f596f7520686176656e277420616c6c6f77656420656e6f75676820555344432060008201527f746f206265207370656e74206279207468697320636f6e747261637420666f7260208201527f2074686973207472616e73616374696f6e2e0000000000000000000000000000604082015250565b7f4f6e6c79206f776e6572206f66207468697320636f6e74726163742063616e2060008201527f6578656375746520746869732066756e6374696f6e2e00000000000000000000602082015250565b7f5468652066756e642077616c6c657420686173206e6f7420616c6c6f7765642060008201527f7468697320636f6e747261637420746f207370656e6420697473205553444300602082015250565b7f5265656e7472616e637947756172643a207265656e7472616e742063616c6c00600082015250565b61209881611c7c565b81146120a357600080fd5b50565b6120af81611cb2565b81146120ba57600080fd5b5056fea2646970667358221220a55ca617e646b0f35b5e9cc88ce4e4d2e313b2f053f6c22fb69a4cd8c29f364464736f6c63430008040033",
  "linkReferences": {},
  "deployedLinkReferences": {}
}