{
  "_format": "hh-sol-artifact-1",
  "contractName": "contractCapsa",
  "sourceName": "contracts/contract.sol",
  "abi": [
    {
      "inputs": [
        {
          "internalType": "uint256",
          "name": "amountUSDC",
          "type": "uint256"
        }
      ],
      "name": "buyCAPSA",
      "outputs": [],
      "stateMutability": "nonpayable",
      "type": "function"
    },
    {
      "inputs": [
        {
          "internalType": "uint256",
          "name": "amountUSDC",
          "type": "uint256"
        }
      ],
      "name": "getAmountCAPSA",
      "outputs": [
        {
          "internalType": "uint256",
          "name": "",
          "type": "uint256"
        }
      ],
      "stateMutability": "view",
      "type": "function"
    },
    {
      "inputs": [
        {
          "internalType": "uint256",
          "name": "amountCAPSA",
          "type": "uint256"
        }
      ],
      "name": "getAmountUSDC",
      "outputs": [
        {
          "internalType": "uint256",
          "name": "",
          "type": "uint256"
        }
      ],
      "stateMutability": "view",
      "type": "function"
    },
    {
      "inputs": [],
      "name": "getPrice",
      "outputs": [
        {
          "internalType": "uint256",
          "name": "",
          "type": "uint256"
        }
      ],
      "stateMutability": "view",
      "type": "function"
    },
    {
      "inputs": [
        {
          "internalType": "uint256",
          "name": "amountCAPSA",
          "type": "uint256"
        }
      ],
      "name": "sellCAPSA",
      "outputs": [],
      "stateMutability": "nonpayable",
      "type": "function"
    }
  ],
  "bytecode": "0x608060405234801561001057600080fd5b506101ea806100206000396000f3fe608060405234801561001057600080fd5b50600436106100575760003560e01c80631a6744191461005c57806398d5fdca14610078578063a7e2c4d214610096578063fc312c6f146100c6578063fe9d8323146100f6575b600080fd5b61007660048036038101906100719190610140565b610112565b005b610080610115565b60405161008d9190610178565b60405180910390f35b6100b060048036038101906100ab9190610140565b61011a565b6040516100bd9190610178565b60405180910390f35b6100e060048036038101906100db9190610140565b610121565b6040516100ed9190610178565b60405180910390f35b610110600480360381019061010b9190610140565b610128565b005b50565b600090565b6000919050565b6000919050565b50565b60008135905061013a8161019d565b92915050565b60006020828403121561015257600080fd5b60006101608482850161012b565b91505092915050565b61017281610193565b82525050565b600060208201905061018d6000830184610169565b92915050565b6000819050919050565b6101a681610193565b81146101b157600080fd5b5056fea2646970667358221220ed7366102dca4b6f9289c80ab788e19f065e45d5c1eb031a08f72d2ce4c7742b64736f6c63430008040033",
  "linkReferences": {},
  "deployedLinkReferences": {}
}