{
  "_format": "hh-sol-artifact-1",
  "contractName": "ldgSwap",
  "sourceName": "contracts/contract.sol",
  "abi": [
    {
      "inputs": [
        {
          "internalType": "address",
          "name": "_USDAddress",
          "type": "address"
        },
        {
          "internalType": "address",
          "name": "_CAPSAddress",
          "type": "address"
        },
        {
          "internalType": "address",
          "name": "_CAPSATokenAddress",
          "type": "address"
        },
        {
          "internalType": "address",
          "name": "_LDGTokenAddress",
          "type": "address"
        },
        {
          "internalType": "address",
          "name": "_fundWallet",
          "type": "address"
        },
        {
          "internalType": "address",
          "name": "_feeWallet",
          "type": "address"
        },
        {
          "internalType": "address",
          "name": "_feeRoleLDG",
          "type": "address"
        }
      ],
      "stateMutability": "nonpayable",
      "type": "constructor"
    },
    {
      "anonymous": false,
      "inputs": [
        {
          "indexed": true,
          "internalType": "address",
          "name": "previousOwner",
          "type": "address"
        },
        {
          "indexed": true,
          "internalType": "address",
          "name": "newOwner",
          "type": "address"
        }
      ],
      "name": "OwnershipTransferred",
      "type": "event"
    },
    {
      "anonymous": false,
      "inputs": [
        {
          "indexed": true,
          "internalType": "bytes32",
          "name": "role",
          "type": "bytes32"
        },
        {
          "indexed": true,
          "internalType": "bytes32",
          "name": "previousAdminRole",
          "type": "bytes32"
        },
        {
          "indexed": true,
          "internalType": "bytes32",
          "name": "newAdminRole",
          "type": "bytes32"
        }
      ],
      "name": "RoleAdminChanged",
      "type": "event"
    },
    {
      "anonymous": false,
      "inputs": [
        {
          "indexed": true,
          "internalType": "bytes32",
          "name": "role",
          "type": "bytes32"
        },
        {
          "indexed": true,
          "internalType": "address",
          "name": "account",
          "type": "address"
        },
        {
          "indexed": true,
          "internalType": "address",
          "name": "sender",
          "type": "address"
        }
      ],
      "name": "RoleGranted",
      "type": "event"
    },
    {
      "anonymous": false,
      "inputs": [
        {
          "indexed": true,
          "internalType": "bytes32",
          "name": "role",
          "type": "bytes32"
        },
        {
          "indexed": true,
          "internalType": "address",
          "name": "account",
          "type": "address"
        },
        {
          "indexed": true,
          "internalType": "address",
          "name": "sender",
          "type": "address"
        }
      ],
      "name": "RoleRevoked",
      "type": "event"
    },
    {
      "anonymous": false,
      "inputs": [],
      "name": "allowanceFundWallet",
      "type": "event"
    },
    {
      "inputs": [],
      "name": "DEFAULT_ADMIN_ROLE",
      "outputs": [
        {
          "internalType": "bytes32",
          "name": "",
          "type": "bytes32"
        }
      ],
      "stateMutability": "view",
      "type": "function"
    },
    {
      "inputs": [],
      "name": "FEE_ROLE",
      "outputs": [
        {
          "internalType": "bytes32",
          "name": "",
          "type": "bytes32"
        }
      ],
      "stateMutability": "view",
      "type": "function"
    },
    {
      "inputs": [
        {
          "internalType": "uint256",
          "name": "amount",
          "type": "uint256"
        }
      ],
      "name": "deposit",
      "outputs": [],
      "stateMutability": "nonpayable",
      "type": "function"
    },
    {
      "inputs": [],
      "name": "depositPaused",
      "outputs": [
        {
          "internalType": "bool",
          "name": "",
          "type": "bool"
        }
      ],
      "stateMutability": "view",
      "type": "function"
    },
    {
      "inputs": [],
      "name": "fee",
      "outputs": [
        {
          "internalType": "uint32",
          "name": "",
          "type": "uint32"
        }
      ],
      "stateMutability": "view",
      "type": "function"
    },
    {
      "inputs": [
        {
          "internalType": "bytes32",
          "name": "role",
          "type": "bytes32"
        }
      ],
      "name": "getRoleAdmin",
      "outputs": [
        {
          "internalType": "bytes32",
          "name": "",
          "type": "bytes32"
        }
      ],
      "stateMutability": "view",
      "type": "function"
    },
    {
      "inputs": [
        {
          "internalType": "bytes32",
          "name": "role",
          "type": "bytes32"
        },
        {
          "internalType": "address",
          "name": "account",
          "type": "address"
        }
      ],
      "name": "grantRole",
      "outputs": [],
      "stateMutability": "nonpayable",
      "type": "function"
    },
    {
      "inputs": [
        {
          "internalType": "bytes32",
          "name": "role",
          "type": "bytes32"
        },
        {
          "internalType": "address",
          "name": "account",
          "type": "address"
        }
      ],
      "name": "hasRole",
      "outputs": [
        {
          "internalType": "bool",
          "name": "",
          "type": "bool"
        }
      ],
      "stateMutability": "view",
      "type": "function"
    },
    {
      "inputs": [],
      "name": "lastTimeFee",
      "outputs": [
        {
          "internalType": "uint256",
          "name": "",
          "type": "uint256"
        }
      ],
      "stateMutability": "view",
      "type": "function"
    },
    {
      "inputs": [],
      "name": "myPrice",
      "outputs": [
        {
          "internalType": "uint256",
          "name": "",
          "type": "uint256"
        }
      ],
      "stateMutability": "view",
      "type": "function"
    },
    {
      "inputs": [],
      "name": "owner",
      "outputs": [
        {
          "internalType": "address",
          "name": "",
          "type": "address"
        }
      ],
      "stateMutability": "view",
      "type": "function"
    },
    {
      "inputs": [],
      "name": "pause_deposit",
      "outputs": [],
      "stateMutability": "nonpayable",
      "type": "function"
    },
    {
      "inputs": [],
      "name": "pause_withdraw",
      "outputs": [],
      "stateMutability": "nonpayable",
      "type": "function"
    },
    {
      "inputs": [],
      "name": "renounceOwnership",
      "outputs": [],
      "stateMutability": "nonpayable",
      "type": "function"
    },
    {
      "inputs": [
        {
          "internalType": "bytes32",
          "name": "role",
          "type": "bytes32"
        },
        {
          "internalType": "address",
          "name": "account",
          "type": "address"
        }
      ],
      "name": "renounceRole",
      "outputs": [],
      "stateMutability": "nonpayable",
      "type": "function"
    },
    {
      "inputs": [
        {
          "internalType": "bytes32",
          "name": "role",
          "type": "bytes32"
        },
        {
          "internalType": "address",
          "name": "account",
          "type": "address"
        }
      ],
      "name": "revokeRole",
      "outputs": [],
      "stateMutability": "nonpayable",
      "type": "function"
    },
    {
      "inputs": [
        {
          "internalType": "uint32",
          "name": "_fee",
          "type": "uint32"
        }
      ],
      "name": "setFee",
      "outputs": [],
      "stateMutability": "nonpayable",
      "type": "function"
    },
    {
      "inputs": [
        {
          "internalType": "uint256",
          "name": "_feePeriod",
          "type": "uint256"
        },
        {
          "internalType": "uint32",
          "name": "_ratio_time_fee",
          "type": "uint32"
        }
      ],
      "name": "setFeePeriod",
      "outputs": [],
      "stateMutability": "nonpayable",
      "type": "function"
    },
    {
      "inputs": [
        {
          "internalType": "address",
          "name": "_wallet",
          "type": "address"
        }
      ],
      "name": "setFeeWallet",
      "outputs": [],
      "stateMutability": "nonpayable",
      "type": "function"
    },
    {
      "inputs": [
        {
          "internalType": "address",
          "name": "_wallet",
          "type": "address"
        }
      ],
      "name": "setFundWallet",
      "outputs": [],
      "stateMutability": "nonpayable",
      "type": "function"
    },
    {
      "inputs": [
        {
          "internalType": "address",
          "name": "_token",
          "type": "address"
        }
      ],
      "name": "setToken",
      "outputs": [],
      "stateMutability": "nonpayable",
      "type": "function"
    },
    {
      "inputs": [
        {
          "internalType": "address",
          "name": "_token",
          "type": "address"
        }
      ],
      "name": "setTokenUSD",
      "outputs": [],
      "stateMutability": "nonpayable",
      "type": "function"
    },
    {
      "inputs": [
        {
          "internalType": "bytes4",
          "name": "interfaceId",
          "type": "bytes4"
        }
      ],
      "name": "supportsInterface",
      "outputs": [
        {
          "internalType": "bool",
          "name": "",
          "type": "bool"
        }
      ],
      "stateMutability": "view",
      "type": "function"
    },
    {
      "inputs": [],
      "name": "takeFee",
      "outputs": [],
      "stateMutability": "nonpayable",
      "type": "function"
    },
    {
      "inputs": [
        {
          "internalType": "address",
          "name": "newOwner",
          "type": "address"
        }
      ],
      "name": "transferOwnership",
      "outputs": [],
      "stateMutability": "nonpayable",
      "type": "function"
    },
    {
      "inputs": [
        {
          "internalType": "uint256",
          "name": "amount",
          "type": "uint256"
        }
      ],
      "name": "withdraw",
      "outputs": [],
      "stateMutability": "nonpayable",
      "type": "function"
    },
    {
      "inputs": [],
      "name": "withdrawPaused",
      "outputs": [
        {
          "internalType": "bool",
          "name": "",
          "type": "bool"
        }
      ],
      "stateMutability": "view",
      "type": "function"
    }
  ],
  "bytecode": "0x60806040526000600260006101000a81548173ffffffffffffffffffffffffffffffffffffffff021916908373ffffffffffffffffffffffffffffffffffffffff1602179055506000600360006101000a81548173ffffffffffffffffffffffffffffffffffffffff021916908373ffffffffffffffffffffffffffffffffffffffff1602179055506000600460006101000a81548173ffffffffffffffffffffffffffffffffffffffff021916908373ffffffffffffffffffffffffffffffffffffffff1602179055506000600560006101000a81548173ffffffffffffffffffffffffffffffffffffffff021916908373ffffffffffffffffffffffffffffffffffffffff1602179055506000600660006101000a81548173ffffffffffffffffffffffffffffffffffffffff021916908373ffffffffffffffffffffffffffffffffffffffff1602179055506000600760006101000a81548173ffffffffffffffffffffffffffffffffffffffff021916908373ffffffffffffffffffffffffffffffffffffffff1602179055506006600d60006101000a81548160ff021916908360ff1602179055506107d0600d60016101000a81548163ffffffff021916908363ffffffff1602179055506000600e5562015180600f55610168601060006101000a81548163ffffffff021916908363ffffffff1602179055503480156200020b57600080fd5b506040516200577a3803806200577a833981810160405281019062000231919062000aa9565b62000251620002456200085460201b60201c565b6200085c60201b60201c565b600073ffffffffffffffffffffffffffffffffffffffff168773ffffffffffffffffffffffffffffffffffffffff161415620002c4576040517f08c379a0000000000000000000000000000000000000000000000000000000008152600401620002bb9062000c67565b60405180910390fd5b600073ffffffffffffffffffffffffffffffffffffffff168673ffffffffffffffffffffffffffffffffffffffff16141562000337576040517f08c379a00000000000000000000000000000000000000000000000000000000081526004016200032e9062000d11565b60405180910390fd5b600073ffffffffffffffffffffffffffffffffffffffff168573ffffffffffffffffffffffffffffffffffffffff161415620003aa576040517f08c379a0000000000000000000000000000000000000000000000000000000008152600401620003a19062000ccd565b60405180910390fd5b600073ffffffffffffffffffffffffffffffffffffffff168473ffffffffffffffffffffffffffffffffffffffff1614156200041d576040517f08c379a0000000000000000000000000000000000000000000000000000000008152600401620004149062000cab565b60405180910390fd5b600073ffffffffffffffffffffffffffffffffffffffff168373ffffffffffffffffffffffffffffffffffffffff16141562000490576040517f08c379a0000000000000000000000000000000000000000000000000000000008152600401620004879062000cef565b60405180910390fd5b600073ffffffffffffffffffffffffffffffffffffffff168273ffffffffffffffffffffffffffffffffffffffff16141562000503576040517f08c379a0000000000000000000000000000000000000000000000000000000008152600401620004fa9062000c89565b60405180910390fd5b600073ffffffffffffffffffffffffffffffffffffffff168173ffffffffffffffffffffffffffffffffffffffff16141562000576576040517f08c379a00000000000000000000000000000000000000000000000000000000081526004016200056d9062000d33565b60405180910390fd5b6200058b6000801b336200092060201b60201c565b620005bd7ff33fe78eb7c840e8bf68670029904b6f0da8e79346941c278a4e7676d473df15826200092060201b60201c565b85600a60006101000a81548173ffffffffffffffffffffffffffffffffffffffff021916908373ffffffffffffffffffffffffffffffffffffffff16021790555085600460006101000a81548173ffffffffffffffffffffffffffffffffffffffff021916908373ffffffffffffffffffffffffffffffffffffffff16021790555084600b60006101000a81548173ffffffffffffffffffffffffffffffffffffffff021916908373ffffffffffffffffffffffffffffffffffffffff16021790555084600760006101000a81548173ffffffffffffffffffffffffffffffffffffffff021916908373ffffffffffffffffffffffffffffffffffffffff16021790555086600960006101000a81548173ffffffffffffffffffffffffffffffffffffffff021916908373ffffffffffffffffffffffffffffffffffffffff16021790555086600360006101000a81548173ffffffffffffffffffffffffffffffffffffffff021916908373ffffffffffffffffffffffffffffffffffffffff16021790555083600860006101000a81548173ffffffffffffffffffffffffffffffffffffffff021916908373ffffffffffffffffffffffffffffffffffffffff16021790555083600260006101000a81548173ffffffffffffffffffffffffffffffffffffffff021916908373ffffffffffffffffffffffffffffffffffffffff16021790555082600560006101000a81548173ffffffffffffffffffffffffffffffffffffffff021916908373ffffffffffffffffffffffffffffffffffffffff16021790555081600660006101000a81548173ffffffffffffffffffffffffffffffffffffffff021916908373ffffffffffffffffffffffffffffffffffffffff1602179055505050505050505062000fdd565b600033905090565b60008060009054906101000a900473ffffffffffffffffffffffffffffffffffffffff169050816000806101000a81548173ffffffffffffffffffffffffffffffffffffffff021916908373ffffffffffffffffffffffffffffffffffffffff1602179055508173ffffffffffffffffffffffffffffffffffffffff168173ffffffffffffffffffffffffffffffffffffffff167f8be0079c531659141344cd1fd0a4f28419497f9722a3daafe3b4186f6b6457e060405160405180910390a35050565b6200093282826200093660201b60201c565b5050565b62000948828262000a2760201b60201c565b62000a2357600180600084815260200190815260200160002060000160008373ffffffffffffffffffffffffffffffffffffffff1673ffffffffffffffffffffffffffffffffffffffff16815260200190815260200160002060006101000a81548160ff021916908315150217905550620009c86200085460201b60201c565b73ffffffffffffffffffffffffffffffffffffffff168173ffffffffffffffffffffffffffffffffffffffff16837f2f8788117e7eff1d82e926ec794901d17c78024a50270940304540a733656f0d60405160405180910390a45b5050565b60006001600084815260200190815260200160002060000160008373ffffffffffffffffffffffffffffffffffffffff1673ffffffffffffffffffffffffffffffffffffffff16815260200190815260200160002060009054906101000a900460ff16905092915050565b60008151905062000aa38162000fc3565b92915050565b600080600080600080600060e0888a03121562000ac557600080fd5b600062000ad58a828b0162000a92565b975050602062000ae88a828b0162000a92565b965050604062000afb8a828b0162000a92565b955050606062000b0e8a828b0162000a92565b945050608062000b218a828b0162000a92565b93505060a062000b348a828b0162000a92565b92505060c062000b478a828b0162000a92565b91505092959891949750929550565b600062000b6560238362000d55565b915062000b728262000d9a565b604082019050919050565b600062000b8c60218362000d55565b915062000b998262000de9565b604082019050919050565b600062000bb360248362000d55565b915062000bc08262000e38565b604082019050919050565b600062000bda60228362000d55565b915062000be78262000e87565b604082019050919050565b600062000c0160228362000d55565b915062000c0e8262000ed6565b604082019050919050565b600062000c2860258362000d55565b915062000c358262000f25565b604082019050919050565b600062000c4f60278362000d55565b915062000c5c8262000f74565b604082019050919050565b6000602082019050818103600083015262000c828162000b56565b9050919050565b6000602082019050818103600083015262000ca48162000b7d565b9050919050565b6000602082019050818103600083015262000cc68162000ba4565b9050919050565b6000602082019050818103600083015262000ce88162000bcb565b9050919050565b6000602082019050818103600083015262000d0a8162000bf2565b9050919050565b6000602082019050818103600083015262000d2c8162000c19565b9050919050565b6000602082019050818103600083015262000d4e8162000c40565b9050919050565b600082825260208201905092915050565b600062000d738262000d7a565b9050919050565b600073ffffffffffffffffffffffffffffffffffffffff82169050919050565b7f55534420636f6e747261637420616464726573732063616e6e6f74206265203060008201527f78302e0000000000000000000000000000000000000000000000000000000000602082015250565b7f4665652077616c6c657420616464726573732063616e6e6f742062652030783060008201527f2e00000000000000000000000000000000000000000000000000000000000000602082015250565b7f4c65646769747920746f6b656e20616464726573732063616e6e6f742062652060008201527f3078302e00000000000000000000000000000000000000000000000000000000602082015250565b7f434150534120746f6b656e20616464726573732063616e6e6f7420626520307860008201527f302e000000000000000000000000000000000000000000000000000000000000602082015250565b7f46756e642077616c6c657420616464726573732063616e6e6f7420626520307860008201527f302e000000000000000000000000000000000000000000000000000000000000602082015250565b7f434150534120636f6e747261637420616464726573732063616e6e6f7420626560008201527f203078302e000000000000000000000000000000000000000000000000000000602082015250565b7f46656520726f6c65206164647265737320616464726573732063616e6e6f742060008201527f6265203078302e00000000000000000000000000000000000000000000000000602082015250565b62000fce8162000d66565b811462000fda57600080fd5b50565b61478d8062000fed6000396000f3fe608060405234801561001057600080fd5b50600436106101a95760003560e01c8063545ee7b5116100f9578063a217fddf11610097578063b865fa9111610071578063b865fa9114610446578063d547741f14610450578063ddca3f431461046c578063f2fde38b1461048a576101a9565b8063a217fddf146103f0578063b66d88f41461040e578063b6b55f251461042a576101a9565b80638da5cb5b116100d35780638da5cb5b1461036a57806390d49b9d1461038857806391d14854146103a457806395420f75146103d4576101a9565b8063545ee7b51461032657806355ce3b9a14610344578063715018a614610360576101a9565b80632a0276f8116101665780632f3ffb9f116101405780632f3ffb9f146102c457806332d95c66146102e257806336568abe1461030057806348eac8941461031c576101a9565b80632a0276f81461026e5780632e1a7d4d1461028c5780632f2ff15d146102a8576101a9565b806301ffc9a7146101ae57806302befd24146101de578063144fa6d7146101fc578063181aa1fd146102185780631ab971ab14610222578063248a9ca31461023e575b600080fd5b6101c860048036038101906101c391906133b1565b6104a6565b6040516101d59190613949565b60405180910390f35b6101e6610520565b6040516101f39190613949565b60405180910390f35b610216600480360381019061021191906132fa565b610533565b005b6102206105c0565b005b61023c60048036038101906102379190613468565b610b67565b005b6102586004803603810190610253919061334c565b610bdf565b6040516102659190613964565b60405180910390f35b610276610bff565b6040516102839190613964565b60405180910390f35b6102a660048036038101906102a191906133da565b610c23565b005b6102c260048036038101906102bd9190613375565b61190e565b005b6102cc61192f565b6040516102d99190613949565b60405180910390f35b6102ea611942565b6040516102f79190613c41565b60405180910390f35b61031a60048036038101906103159190613375565b611948565b005b6103246119cb565b005b61032e6119ff565b60405161033b9190613c41565b60405180910390f35b61035e600480360381019061035991906132fa565b611ce0565b005b610368611d2c565b005b610372611d40565b60405161037f91906138a5565b60405180910390f35b6103a2600480360381019061039d91906132fa565b611d69565b005b6103be60048036038101906103b99190613375565b611db5565b6040516103cb9190613949565b60405180910390f35b6103ee60048036038101906103e991906132fa565b611e20565b005b6103f8611ead565b6040516104059190613964565b60405180910390f35b6104286004803603810190610423919061342c565b611eb4565b005b610444600480360381019061043f91906133da565b611ee8565b005b61044e612a57565b005b61046a60048036038101906104659190613375565b612a8b565b005b610474612aac565b6040516104819190613c5c565b60405180910390f35b6104a4600480360381019061049f91906132fa565b612ac2565b005b60007f7965db0b000000000000000000000000000000000000000000000000000000007bffffffffffffffffffffffffffffffffffffffffffffffffffffffff1916827bffffffffffffffffffffffffffffffffffffffffffffffffffffffff19161480610519575061051882612b46565b5b9050919050565b600b60149054906101000a900460ff1681565b61053b612bb0565b80600860006101000a81548173ffffffffffffffffffffffffffffffffffffffff021916908373ffffffffffffffffffffffffffffffffffffffff16021790555080600260006101000a81548173ffffffffffffffffffffffffffffffffffffffff021916908373ffffffffffffffffffffffffffffffffffffffff16021790555050565b600073ffffffffffffffffffffffffffffffffffffffff16600360009054906101000a900473ffffffffffffffffffffffffffffffffffffffff1673ffffffffffffffffffffffffffffffffffffffff161415610652576040517f08c379a000000000000000000000000000000000000000000000000000000000815260040161064990613bc1565b60405180910390fd5b600073ffffffffffffffffffffffffffffffffffffffff16600460009054906101000a900473ffffffffffffffffffffffffffffffffffffffff1673ffffffffffffffffffffffffffffffffffffffff1614156106e4576040517f08c379a00000000000000000000000000000000000000000000000000000000081526004016106db90613b61565b60405180910390fd5b600073ffffffffffffffffffffffffffffffffffffffff16600260009054906101000a900473ffffffffffffffffffffffffffffffffffffffff1673ffffffffffffffffffffffffffffffffffffffff161415610776576040517f08c379a000000000000000000000000000000000000000000000000000000000815260040161076d90613b21565b60405180910390fd5b600073ffffffffffffffffffffffffffffffffffffffff16600560009054906101000a900473ffffffffffffffffffffffffffffffffffffffff1673ffffffffffffffffffffffffffffffffffffffff161415610808576040517f08c379a00000000000000000000000000000000000000000000000000000000081526004016107ff906139e1565b60405180910390fd5b600073ffffffffffffffffffffffffffffffffffffffff16600660009054906101000a900473ffffffffffffffffffffffffffffffffffffffff1673ffffffffffffffffffffffffffffffffffffffff16141561089a576040517f08c379a000000000000000000000000000000000000000000000000000000000815260040161089190613a21565b60405180910390fd5b600073ffffffffffffffffffffffffffffffffffffffff16600760009054906101000a900473ffffffffffffffffffffffffffffffffffffffff1673ffffffffffffffffffffffffffffffffffffffff16141561092c576040517f08c379a000000000000000000000000000000000000000000000000000000000815260040161092390613ae1565b60405180910390fd5b6109567ff33fe78eb7c840e8bf68670029904b6f0da8e79346941c278a4e7676d473df1533611db5565b610995576040517f08c379a000000000000000000000000000000000000000000000000000000000815260040161098c90613b01565b60405180910390fd5b6000600e5414806109b4575042600f54600e546109b29190613c9e565b105b6109f3576040517f08c379a00000000000000000000000000000000000000000000000000000000081526004016109ea90613a01565b60405180910390fd5b600042600e81905550601060009054906101000a900463ffffffff1663ffffffff16620186a0600d60019054906101000a900463ffffffff1663ffffffff16600c54610a3f9190613e96565b610a499190613cf4565b610a539190613cf4565b905080600c6000828254610a679190613ef0565b92505081905550600b60009054906101000a900473ffffffffffffffffffffffffffffffffffffffff1673ffffffffffffffffffffffffffffffffffffffff166323b872dd600560009054906101000a900473ffffffffffffffffffffffffffffffffffffffff16600660009054906101000a900473ffffffffffffffffffffffffffffffffffffffff16846040518463ffffffff1660e01b8152600401610b11939291906138e9565b602060405180830381600087803b158015610b2b57600080fd5b505af1158015610b3f573d6000803e3d6000fd5b505050506040513d601f19601f82011682018060405250810190610b639190613323565b5050565b610b6f612bb0565b620186a08163ffffffff161115610bbb576040517f08c379a0000000000000000000000000000000000000000000000000000000008152600401610bb2906139a1565b60405180910390fd5b80600d60016101000a81548163ffffffff021916908363ffffffff16021790555050565b600060016000838152602001908152602001600020600101549050919050565b7ff33fe78eb7c840e8bf68670029904b6f0da8e79346941c278a4e7676d473df1581565b600073ffffffffffffffffffffffffffffffffffffffff16600360009054906101000a900473ffffffffffffffffffffffffffffffffffffffff1673ffffffffffffffffffffffffffffffffffffffff161415610cb5576040517f08c379a0000000000000000000000000000000000000000000000000000000008152600401610cac90613bc1565b60405180910390fd5b600073ffffffffffffffffffffffffffffffffffffffff16600460009054906101000a900473ffffffffffffffffffffffffffffffffffffffff1673ffffffffffffffffffffffffffffffffffffffff161415610d47576040517f08c379a0000000000000000000000000000000000000000000000000000000008152600401610d3e90613b61565b60405180910390fd5b600073ffffffffffffffffffffffffffffffffffffffff16600260009054906101000a900473ffffffffffffffffffffffffffffffffffffffff1673ffffffffffffffffffffffffffffffffffffffff161415610dd9576040517f08c379a0000000000000000000000000000000000000000000000000000000008152600401610dd090613b21565b60405180910390fd5b600073ffffffffffffffffffffffffffffffffffffffff16600560009054906101000a900473ffffffffffffffffffffffffffffffffffffffff1673ffffffffffffffffffffffffffffffffffffffff161415610e6b576040517f08c379a0000000000000000000000000000000000000000000000000000000008152600401610e62906139e1565b60405180910390fd5b600073ffffffffffffffffffffffffffffffffffffffff16600660009054906101000a900473ffffffffffffffffffffffffffffffffffffffff1673ffffffffffffffffffffffffffffffffffffffff161415610efd576040517f08c379a0000000000000000000000000000000000000000000000000000000008152600401610ef490613a21565b60405180910390fd5b600073ffffffffffffffffffffffffffffffffffffffff16600760009054906101000a900473ffffffffffffffffffffffffffffffffffffffff1673ffffffffffffffffffffffffffffffffffffffff161415610f8f576040517f08c379a0000000000000000000000000000000000000000000000000000000008152600401610f8690613ae1565b60405180910390fd5b60001515600b60159054906101000a900460ff16151514610fe5576040517f08c379a0000000000000000000000000000000000000000000000000000000008152600401610fdc90613b41565b60405180910390fd5b80600860009054906101000a900473ffffffffffffffffffffffffffffffffffffffff1673ffffffffffffffffffffffffffffffffffffffff166370a08231336040518263ffffffff1660e01b815260040161104191906138a5565b60206040518083038186803b15801561105957600080fd5b505afa15801561106d573d6000803e3d6000fd5b505050506040513d601f19601f820116820180604052508101906110919190613403565b10156110d2576040517f08c379a00000000000000000000000000000000000000000000000000000000081526004016110c990613a81565b60405180910390fd5b6000620f424082600860009054906101000a900473ffffffffffffffffffffffffffffffffffffffff1673ffffffffffffffffffffffffffffffffffffffff166318160ddd6040518163ffffffff1660e01b815260040160206040518083038186803b15801561114157600080fd5b505afa158015611155573d6000803e3d6000fd5b505050506040513d601f19601f820116820180604052508101906111799190613403565b620f4240600c5461118a9190613e96565b6111949190613cf4565b61119e9190613e96565b6111a89190613cf4565b90506000600a60009054906101000a900473ffffffffffffffffffffffffffffffffffffffff1673ffffffffffffffffffffffffffffffffffffffff1663fc312c6f836040518263ffffffff1660e01b81526004016112079190613c41565b60206040518083038186803b15801561121f57600080fd5b505afa158015611233573d6000803e3d6000fd5b505050506040513d601f19601f820116820180604052508101906112579190613403565b905081600b60009054906101000a900473ffffffffffffffffffffffffffffffffffffffff1673ffffffffffffffffffffffffffffffffffffffff1663dd62ed3e600560009054906101000a900473ffffffffffffffffffffffffffffffffffffffff16306040518363ffffffff1660e01b81526004016112d99291906138c0565b60206040518083038186803b1580156112f157600080fd5b505afa158015611305573d6000803e3d6000fd5b505050506040513d601f19601f820116820180604052508101906113299190613403565b101561135c577fc04d813db71023418925e383ee3d228104ef5744797dee89aa3d56311ad5c6d960405160405180910390a15b81600b60009054906101000a900473ffffffffffffffffffffffffffffffffffffffff1673ffffffffffffffffffffffffffffffffffffffff1663dd62ed3e600560009054906101000a900473ffffffffffffffffffffffffffffffffffffffff16306040518363ffffffff1660e01b81526004016113dc9291906138c0565b60206040518083038186803b1580156113f457600080fd5b505afa158015611408573d6000803e3d6000fd5b505050506040513d601f19601f8201168201806040525081019061142c9190613403565b101561146d576040517f08c379a000000000000000000000000000000000000000000000000000000000815260040161146490613aa1565b60405180910390fd5b600b60009054906101000a900473ffffffffffffffffffffffffffffffffffffffff1673ffffffffffffffffffffffffffffffffffffffff1663095ea7b3600460009054906101000a900473ffffffffffffffffffffffffffffffffffffffff16846040518363ffffffff1660e01b81526004016114ec929190613920565b602060405180830381600087803b15801561150657600080fd5b505af115801561151a573d6000803e3d6000fd5b505050506040513d601f19601f8201168201806040525081019061153e9190613323565b5081600b60009054906101000a900473ffffffffffffffffffffffffffffffffffffffff1673ffffffffffffffffffffffffffffffffffffffff1663dd62ed3e30600460009054906101000a900473ffffffffffffffffffffffffffffffffffffffff166040518363ffffffff1660e01b81526004016115bf9291906138c0565b60206040518083038186803b1580156115d757600080fd5b505afa1580156115eb573d6000803e3d6000fd5b505050506040513d601f19601f8201168201806040525081019061160f9190613403565b1015611650576040517f08c379a000000000000000000000000000000000000000000000000000000000815260040161164790613ba1565b60405180910390fd5b600860009054906101000a900473ffffffffffffffffffffffffffffffffffffffff1673ffffffffffffffffffffffffffffffffffffffff166379cc679033856040518363ffffffff1660e01b81526004016116ad929190613920565b600060405180830381600087803b1580156116c757600080fd5b505af11580156116db573d6000803e3d6000fd5b50505050600b60009054906101000a900473ffffffffffffffffffffffffffffffffffffffff1673ffffffffffffffffffffffffffffffffffffffff166323b872dd600560009054906101000a900473ffffffffffffffffffffffffffffffffffffffff1630856040518463ffffffff1660e01b8152600401611760939291906138e9565b602060405180830381600087803b15801561177a57600080fd5b505af115801561178e573d6000803e3d6000fd5b505050506040513d601f19601f820116820180604052508101906117b29190613323565b50600a60009054906101000a900473ffffffffffffffffffffffffffffffffffffffff1673ffffffffffffffffffffffffffffffffffffffff1663fe9d8323836040518263ffffffff1660e01b815260040161180e9190613c41565b600060405180830381600087803b15801561182857600080fd5b505af115801561183c573d6000803e3d6000fd5b5050505081600c60008282546118529190613ef0565b92505081905550600960009054906101000a900473ffffffffffffffffffffffffffffffffffffffff1673ffffffffffffffffffffffffffffffffffffffff1663a9059cbb33836040518363ffffffff1660e01b81526004016118b6929190613920565b602060405180830381600087803b1580156118d057600080fd5b505af11580156118e4573d6000803e3d6000fd5b505050506040513d601f19601f820116820180604052508101906119089190613323565b50505050565b61191782610bdf565b61192081612c2e565b61192a8383612c42565b505050565b600b60159054906101000a900460ff1681565b600e5481565b611950612d22565b73ffffffffffffffffffffffffffffffffffffffff168173ffffffffffffffffffffffffffffffffffffffff16146119bd576040517f08c379a00000000000000000000000000000000000000000000000000000000081526004016119b490613c01565b60405180910390fd5b6119c78282612d2a565b5050565b6119d3612bb0565b600b60159054906101000a900460ff1615600b60156101000a81548160ff021916908315150217905550565b600080600860009054906101000a900473ffffffffffffffffffffffffffffffffffffffff1673ffffffffffffffffffffffffffffffffffffffff166318160ddd6040518163ffffffff1660e01b815260040160206040518083038186803b158015611a6a57600080fd5b505afa158015611a7e573d6000803e3d6000fd5b505050506040513d601f19601f82011682018060405250810190611aa29190613403565b148015611ab157506000600c54145b15611b5d57600a60009054906101000a900473ffffffffffffffffffffffffffffffffffffffff1673ffffffffffffffffffffffffffffffffffffffff166398d5fdca6040518163ffffffff1660e01b815260040160206040518083038186803b158015611b1e57600080fd5b505afa158015611b32573d6000803e3d6000fd5b505050506040513d601f19601f82011682018060405250810190611b569190613403565b9050611cdd565b600860009054906101000a900473ffffffffffffffffffffffffffffffffffffffff1673ffffffffffffffffffffffffffffffffffffffff166318160ddd6040518163ffffffff1660e01b815260040160206040518083038186803b158015611bc557600080fd5b505afa158015611bd9573d6000803e3d6000fd5b505050506040513d601f19601f82011682018060405250810190611bfd9190613403565b600d60009054906101000a900460ff16600a611c199190613d78565b600a60009054906101000a900473ffffffffffffffffffffffffffffffffffffffff1673ffffffffffffffffffffffffffffffffffffffff1663fc312c6f600c546040518263ffffffff1660e01b8152600401611c769190613c41565b60206040518083038186803b158015611c8e57600080fd5b505afa158015611ca2573d6000803e3d6000fd5b505050506040513d601f19601f82011682018060405250810190611cc69190613403565b611cd09190613e96565b611cda9190613cf4565b90505b90565b611ce8612bb0565b80600560006101000a81548173ffffffffffffffffffffffffffffffffffffffff021916908373ffffffffffffffffffffffffffffffffffffffff16021790555050565b611d34612bb0565b611d3e6000612e0c565b565b60008060009054906101000a900473ffffffffffffffffffffffffffffffffffffffff16905090565b611d71612bb0565b80600660006101000a81548173ffffffffffffffffffffffffffffffffffffffff021916908373ffffffffffffffffffffffffffffffffffffffff16021790555050565b60006001600084815260200190815260200160002060000160008373ffffffffffffffffffffffffffffffffffffffff1673ffffffffffffffffffffffffffffffffffffffff16815260200190815260200160002060009054906101000a900460ff16905092915050565b611e28612bb0565b80600960006101000a81548173ffffffffffffffffffffffffffffffffffffffff021916908373ffffffffffffffffffffffffffffffffffffffff16021790555080600360006101000a81548173ffffffffffffffffffffffffffffffffffffffff021916908373ffffffffffffffffffffffffffffffffffffffff16021790555050565b6000801b81565b611ebc612bb0565b81600f8190555080601060006101000a81548163ffffffff021916908363ffffffff1602179055505050565b600073ffffffffffffffffffffffffffffffffffffffff16600360009054906101000a900473ffffffffffffffffffffffffffffffffffffffff1673ffffffffffffffffffffffffffffffffffffffff161415611f7a576040517f08c379a0000000000000000000000000000000000000000000000000000000008152600401611f7190613bc1565b60405180910390fd5b600073ffffffffffffffffffffffffffffffffffffffff16600460009054906101000a900473ffffffffffffffffffffffffffffffffffffffff1673ffffffffffffffffffffffffffffffffffffffff16141561200c576040517f08c379a000000000000000000000000000000000000000000000000000000000815260040161200390613b61565b60405180910390fd5b600073ffffffffffffffffffffffffffffffffffffffff16600260009054906101000a900473ffffffffffffffffffffffffffffffffffffffff1673ffffffffffffffffffffffffffffffffffffffff16141561209e576040517f08c379a000000000000000000000000000000000000000000000000000000000815260040161209590613b21565b60405180910390fd5b600073ffffffffffffffffffffffffffffffffffffffff16600560009054906101000a900473ffffffffffffffffffffffffffffffffffffffff1673ffffffffffffffffffffffffffffffffffffffff161415612130576040517f08c379a0000000000000000000000000000000000000000000000000000000008152600401612127906139e1565b60405180910390fd5b600073ffffffffffffffffffffffffffffffffffffffff16600660009054906101000a900473ffffffffffffffffffffffffffffffffffffffff1673ffffffffffffffffffffffffffffffffffffffff1614156121c2576040517f08c379a00000000000000000000000000000000000000000000000000000000081526004016121b990613a21565b60405180910390fd5b600073ffffffffffffffffffffffffffffffffffffffff16600760009054906101000a900473ffffffffffffffffffffffffffffffffffffffff1673ffffffffffffffffffffffffffffffffffffffff161415612254576040517f08c379a000000000000000000000000000000000000000000000000000000000815260040161224b90613ae1565b60405180910390fd5b60001515600b60149054906101000a900460ff161515146122aa576040517f08c379a00000000000000000000000000000000000000000000000000000000081526004016122a190613ac1565b60405180910390fd5b80600960009054906101000a900473ffffffffffffffffffffffffffffffffffffffff1673ffffffffffffffffffffffffffffffffffffffff166370a08231336040518263ffffffff1660e01b815260040161230691906138a5565b60206040518083038186803b15801561231e57600080fd5b505afa158015612332573d6000803e3d6000fd5b505050506040513d601f19601f820116820180604052508101906123569190613403565b1015612397576040517f08c379a000000000000000000000000000000000000000000000000000000000815260040161238e90613be1565b60405180910390fd5b80600960009054906101000a900473ffffffffffffffffffffffffffffffffffffffff1673ffffffffffffffffffffffffffffffffffffffff1663dd62ed3e33306040518363ffffffff1660e01b81526004016123f59291906138c0565b60206040518083038186803b15801561240d57600080fd5b505afa158015612421573d6000803e3d6000fd5b505050506040513d601f19601f820116820180604052508101906124459190613403565b1015612486576040517f08c379a000000000000000000000000000000000000000000000000000000000815260040161247d90613c21565b60405180910390fd5b600960009054906101000a900473ffffffffffffffffffffffffffffffffffffffff1673ffffffffffffffffffffffffffffffffffffffff1663095ea7b3600460009054906101000a900473ffffffffffffffffffffffffffffffffffffffff16836040518363ffffffff1660e01b8152600401612505929190613920565b602060405180830381600087803b15801561251f57600080fd5b505af1158015612533573d6000803e3d6000fd5b505050506040513d601f19601f820116820180604052508101906125579190613323565b5080600960009054906101000a900473ffffffffffffffffffffffffffffffffffffffff1673ffffffffffffffffffffffffffffffffffffffff1663dd62ed3e30600460009054906101000a900473ffffffffffffffffffffffffffffffffffffffff166040518363ffffffff1660e01b81526004016125d89291906138c0565b60206040518083038186803b1580156125f057600080fd5b505afa158015612604573d6000803e3d6000fd5b505050506040513d601f19601f820116820180604052508101906126289190613403565b1015612669576040517f08c379a000000000000000000000000000000000000000000000000000000000815260040161266090613ba1565b60405180910390fd5b60006126736119ff565b90506000600a60009054906101000a900473ffffffffffffffffffffffffffffffffffffffff1673ffffffffffffffffffffffffffffffffffffffff1663a7e2c4d2846040518263ffffffff1660e01b81526004016126d29190613c41565b60206040518083038186803b1580156126ea57600080fd5b505afa1580156126fe573d6000803e3d6000fd5b505050506040513d601f19601f820116820180604052508101906127229190613403565b90506000600960009054906101000a900473ffffffffffffffffffffffffffffffffffffffff1673ffffffffffffffffffffffffffffffffffffffff166323b872dd3330876040518463ffffffff1660e01b8152600401612785939291906138e9565b602060405180830381600087803b15801561279f57600080fd5b505af11580156127b3573d6000803e3d6000fd5b505050506040513d601f19601f820116820180604052508101906127d79190613323565b905080612819576040517f08c379a000000000000000000000000000000000000000000000000000000000815260040161281090613a61565b60405180910390fd5b600a60009054906101000a900473ffffffffffffffffffffffffffffffffffffffff1673ffffffffffffffffffffffffffffffffffffffff16631a674419856040518263ffffffff1660e01b81526004016128749190613c41565b600060405180830381600087803b15801561288e57600080fd5b505af11580156128a2573d6000803e3d6000fd5b50505050600b60009054906101000a900473ffffffffffffffffffffffffffffffffffffffff1673ffffffffffffffffffffffffffffffffffffffff1663a9059cbb600560009054906101000a900473ffffffffffffffffffffffffffffffffffffffff16846040518363ffffffff1660e01b8152600401612925929190613920565b602060405180830381600087803b15801561293f57600080fd5b505af1158015612953573d6000803e3d6000fd5b505050506040513d601f19601f820116820180604052508101906129779190613323565b50600860009054906101000a900473ffffffffffffffffffffffffffffffffffffffff1673ffffffffffffffffffffffffffffffffffffffff166340c10f193385600d60009054906101000a900460ff16600a6129d49190613d78565b886129df9190613e96565b6129e99190613cf4565b6040518363ffffffff1660e01b8152600401612a06929190613920565b600060405180830381600087803b158015612a2057600080fd5b505af1158015612a34573d6000803e3d6000fd5b5050505081600c6000828254612a4a9190613c9e565b9250508190555050505050565b612a5f612bb0565b600b60149054906101000a900460ff1615600b60146101000a81548160ff021916908315150217905550565b612a9482610bdf565b612a9d81612c2e565b612aa78383612d2a565b505050565b600d60019054906101000a900463ffffffff1681565b612aca612bb0565b600073ffffffffffffffffffffffffffffffffffffffff168173ffffffffffffffffffffffffffffffffffffffff161415612b3a576040517f08c379a0000000000000000000000000000000000000000000000000000000008152600401612b3190613a41565b60405180910390fd5b612b4381612e0c565b50565b60007f01ffc9a7000000000000000000000000000000000000000000000000000000007bffffffffffffffffffffffffffffffffffffffffffffffffffffffff1916827bffffffffffffffffffffffffffffffffffffffffffffffffffffffff1916149050919050565b612bb8612d22565b73ffffffffffffffffffffffffffffffffffffffff16612bd6611d40565b73ffffffffffffffffffffffffffffffffffffffff1614612c2c576040517f08c379a0000000000000000000000000000000000000000000000000000000008152600401612c2390613b81565b60405180910390fd5b565b612c3f81612c3a612d22565b612ed0565b50565b612c4c8282611db5565b612d1e57600180600084815260200190815260200160002060000160008373ffffffffffffffffffffffffffffffffffffffff1673ffffffffffffffffffffffffffffffffffffffff16815260200190815260200160002060006101000a81548160ff021916908315150217905550612cc3612d22565b73ffffffffffffffffffffffffffffffffffffffff168173ffffffffffffffffffffffffffffffffffffffff16837f2f8788117e7eff1d82e926ec794901d17c78024a50270940304540a733656f0d60405160405180910390a45b5050565b600033905090565b612d348282611db5565b15612e085760006001600084815260200190815260200160002060000160008373ffffffffffffffffffffffffffffffffffffffff1673ffffffffffffffffffffffffffffffffffffffff16815260200190815260200160002060006101000a81548160ff021916908315150217905550612dad612d22565b73ffffffffffffffffffffffffffffffffffffffff168173ffffffffffffffffffffffffffffffffffffffff16837ff6391f5c32d9c69d2a47ea670b442974b53935d1edc7fd64eb21e047a839171b60405160405180910390a45b5050565b60008060009054906101000a900473ffffffffffffffffffffffffffffffffffffffff169050816000806101000a81548173ffffffffffffffffffffffffffffffffffffffff021916908373ffffffffffffffffffffffffffffffffffffffff1602179055508173ffffffffffffffffffffffffffffffffffffffff168173ffffffffffffffffffffffffffffffffffffffff167f8be0079c531659141344cd1fd0a4f28419497f9722a3daafe3b4186f6b6457e060405160405180910390a35050565b612eda8282611db5565b612f6957612eff8173ffffffffffffffffffffffffffffffffffffffff166014612f6d565b612f0d8360001c6020612f6d565b604051602001612f1e92919061386b565b6040516020818303038152906040526040517f08c379a0000000000000000000000000000000000000000000000000000000008152600401612f60919061397f565b60405180910390fd5b5050565b606060006002836002612f809190613e96565b612f8a9190613c9e565b67ffffffffffffffff811115612fc9577f4e487b7100000000000000000000000000000000000000000000000000000000600052604160045260246000fd5b6040519080825280601f01601f191660200182016040528015612ffb5781602001600182028036833780820191505090505b5090507f300000000000000000000000000000000000000000000000000000000000000081600081518110613059577f4e487b7100000000000000000000000000000000000000000000000000000000600052603260045260246000fd5b60200101907effffffffffffffffffffffffffffffffffffffffffffffffffffffffffffff1916908160001a9053507f7800000000000000000000000000000000000000000000000000000000000000816001815181106130e3577f4e487b7100000000000000000000000000000000000000000000000000000000600052603260045260246000fd5b60200101907effffffffffffffffffffffffffffffffffffffffffffffffffffffffffffff1916908160001a905350600060018460026131239190613e96565b61312d9190613c9e565b90505b6001811115613219577f3031323334353637383961626364656600000000000000000000000000000000600f861660108110613195577f4e487b7100000000000000000000000000000000000000000000000000000000600052603260045260246000fd5b1a60f81b8282815181106131d2577f4e487b7100000000000000000000000000000000000000000000000000000000600052603260045260246000fd5b60200101907effffffffffffffffffffffffffffffffffffffffffffffffffffffffffffff1916908160001a905350600485901c94508061321290613ff2565b9050613130565b506000841461325d576040517f08c379a0000000000000000000000000000000000000000000000000000000008152600401613254906139c1565b60405180910390fd5b8091505092915050565b600081359050613276816146cd565b92915050565b60008151905061328b816146e4565b92915050565b6000813590506132a0816146fb565b92915050565b6000813590506132b581614712565b92915050565b6000813590506132ca81614729565b92915050565b6000815190506132df81614729565b92915050565b6000813590506132f481614740565b92915050565b60006020828403121561330c57600080fd5b600061331a84828501613267565b91505092915050565b60006020828403121561333557600080fd5b60006133438482850161327c565b91505092915050565b60006020828403121561335e57600080fd5b600061336c84828501613291565b91505092915050565b6000806040838503121561338857600080fd5b600061339685828601613291565b92505060206133a785828601613267565b9150509250929050565b6000602082840312156133c357600080fd5b60006133d1848285016132a6565b91505092915050565b6000602082840312156133ec57600080fd5b60006133fa848285016132bb565b91505092915050565b60006020828403121561341557600080fd5b6000613423848285016132d0565b91505092915050565b6000806040838503121561343f57600080fd5b600061344d858286016132bb565b925050602061345e858286016132e5565b9150509250929050565b60006020828403121561347a57600080fd5b6000613488848285016132e5565b91505092915050565b61349a81613f24565b82525050565b6134a981613f36565b82525050565b6134b881613f42565b82525050565b60006134c982613c77565b6134d38185613c82565b93506134e3818560208601613fbf565b6134ec8161407a565b840191505092915050565b600061350282613c77565b61350c8185613c93565b935061351c818560208601613fbf565b80840191505092915050565b6000613535602183613c82565b915061354082614098565b604082019050919050565b6000613558602083613c82565b9150613563826140e7565b602082019050919050565b600061357b602283613c82565b915061358682614110565b604082019050919050565b600061359e604983613c82565b91506135a98261415f565b606082019050919050565b60006135c1602183613c82565b91506135cc826141d4565b604082019050919050565b60006135e4602683613c82565b91506135ef82614223565b604082019050919050565b6000613607602f83613c82565b915061361282614272565b604082019050919050565b600061362a602883613c82565b9150613635826142c1565b604082019050919050565b600061364d604e83613c82565b915061365882614310565b606082019050919050565b6000613670601583613c82565b915061367b82614385565b602082019050919050565b6000613693602283613c82565b915061369e826143ae565b604082019050919050565b60006136b6601f83613c82565b91506136c1826143fd565b602082019050919050565b60006136d9602083613c82565b91506136e482614426565b602082019050919050565b60006136fc601683613c82565b91506137078261444f565b602082019050919050565b600061371f602583613c82565b915061372a82614478565b604082019050919050565b6000613742602083613c82565b915061374d826144c7565b602082019050919050565b6000613765604b83613c82565b9150613770826144f0565b606082019050919050565b6000613788602083613c82565b915061379382614565565b602082019050919050565b60006137ab602b83613c82565b91506137b68261458e565b604082019050919050565b60006137ce601783613c93565b91506137d9826145dd565b601782019050919050565b60006137f1601183613c93565b91506137fc82614606565b601182019050919050565b6000613814602f83613c82565b915061381f8261462f565b604082019050919050565b6000613837602783613c82565b91506138428261467e565b604082019050919050565b61385681613f98565b82525050565b61386581613fa2565b82525050565b6000613876826137c1565b915061388282856134f7565b915061388d826137e4565b915061389982846134f7565b91508190509392505050565b60006020820190506138ba6000830184613491565b92915050565b60006040820190506138d56000830185613491565b6138e26020830184613491565b9392505050565b60006060820190506138fe6000830186613491565b61390b6020830185613491565b613918604083018461384d565b949350505050565b60006040820190506139356000830185613491565b613942602083018461384d565b9392505050565b600060208201905061395e60008301846134a0565b92915050565b600060208201905061397960008301846134af565b92915050565b6000602082019050818103600083015261399981846134be565b905092915050565b600060208201905081810360008301526139ba81613528565b9050919050565b600060208201905081810360008301526139da8161354b565b9050919050565b600060208201905081810360008301526139fa8161356e565b9050919050565b60006020820190508181036000830152613a1a81613591565b9050919050565b60006020820190508181036000830152613a3a816135b4565b9050919050565b60006020820190508181036000830152613a5a816135d7565b9050919050565b60006020820190508181036000830152613a7a816135fa565b9050919050565b60006020820190508181036000830152613a9a8161361d565b9050919050565b60006020820190508181036000830152613aba81613640565b9050919050565b60006020820190508181036000830152613ada81613663565b9050919050565b60006020820190508181036000830152613afa81613686565b9050919050565b60006020820190508181036000830152613b1a816136a9565b9050919050565b60006020820190508181036000830152613b3a816136cc565b9050919050565b60006020820190508181036000830152613b5a816136ef565b9050919050565b60006020820190508181036000830152613b7a81613712565b9050919050565b60006020820190508181036000830152613b9a81613735565b9050919050565b60006020820190508181036000830152613bba81613758565b9050919050565b60006020820190508181036000830152613bda8161377b565b9050919050565b60006020820190508181036000830152613bfa8161379e565b9050919050565b60006020820190508181036000830152613c1a81613807565b9050919050565b60006020820190508181036000830152613c3a8161382a565b9050919050565b6000602082019050613c56600083018461384d565b92915050565b6000602082019050613c71600083018461385c565b92915050565b600081519050919050565b600082825260208201905092915050565b600081905092915050565b6000613ca982613f98565b9150613cb483613f98565b9250827fffffffffffffffffffffffffffffffffffffffffffffffffffffffffffffffff03821115613ce957613ce861401c565b5b828201905092915050565b6000613cff82613f98565b9150613d0a83613f98565b925082613d1a57613d1961404b565b5b828204905092915050565b6000808291508390505b6001851115613d6f57808604811115613d4b57613d4a61401c565b5b6001851615613d5a5780820291505b8081029050613d688561408b565b9450613d2f565b94509492505050565b6000613d8382613f98565b9150613d8e83613fb2565b9250613dbb7fffffffffffffffffffffffffffffffffffffffffffffffffffffffffffffffff8484613dc3565b905092915050565b600082613dd35760019050613e8f565b81613de15760009050613e8f565b8160018114613df75760028114613e0157613e30565b6001915050613e8f565b60ff841115613e1357613e1261401c565b5b8360020a915084821115613e2a57613e2961401c565b5b50613e8f565b5060208310610133831016604e8410600b8410161715613e655782820a905083811115613e6057613e5f61401c565b5b613e8f565b613e728484846001613d25565b92509050818404811115613e8957613e8861401c565b5b81810290505b9392505050565b6000613ea182613f98565b9150613eac83613f98565b9250817fffffffffffffffffffffffffffffffffffffffffffffffffffffffffffffffff0483118215151615613ee557613ee461401c565b5b828202905092915050565b6000613efb82613f98565b9150613f0683613f98565b925082821015613f1957613f1861401c565b5b828203905092915050565b6000613f2f82613f78565b9050919050565b60008115159050919050565b6000819050919050565b60007fffffffff0000000000000000000000000000000000000000000000000000000082169050919050565b600073ffffffffffffffffffffffffffffffffffffffff82169050919050565b6000819050919050565b600063ffffffff82169050919050565b600060ff82169050919050565b60005b83811015613fdd578082015181840152602081019050613fc2565b83811115613fec576000848401525b50505050565b6000613ffd82613f98565b915060008214156140115761401061401c565b5b600182039050919050565b7f4e487b7100000000000000000000000000000000000000000000000000000000600052601160045260246000fd5b7f4e487b7100000000000000000000000000000000000000000000000000000000600052601260045260246000fd5b6000601f19601f8301169050919050565b60008160011c9050919050565b7f596f752063616e27742068617665206d6f7265207468616e203130302520666560008201527f6500000000000000000000000000000000000000000000000000000000000000602082015250565b7f537472696e67733a20686578206c656e67746820696e73756666696369656e74600082015250565b7f46756e642057616c6c657420616464726573732063616e6e6f7420626520307860008201527f302e000000000000000000000000000000000000000000000000000000000000602082015250565b7f596f752063616e277420636c61696d20616e6f7468657220666565207269676860008201527f74206e6f77207761697420756e74696c2074686520656e64206f66207468652060208201527f666565506572696f640000000000000000000000000000000000000000000000604082015250565b7f4665652057616c6c657420616464726573732063616e6e6f742062652030783060008201527f2e00000000000000000000000000000000000000000000000000000000000000602082015250565b7f4f776e61626c653a206e6577206f776e657220697320746865207a65726f206160008201527f6464726573730000000000000000000000000000000000000000000000000000602082015250565b7f546865205472616e7366657220686173206265656e206661696c65642c20706c60008201527f656173652074727920616761696e2e0000000000000000000000000000000000602082015250565b7f596f7520646f6e2774206861766520656e6f756768206d6f6e657920746f207760008201527f697468647261772e000000000000000000000000000000000000000000000000602082015250565b7f5468652066756e642077616c6c657420686173206e6f7420616c6c6f7765642060008201527f656e6f75676820434150534120546f6b656e206f6e2074686520636f6e74726160208201527f637420746f207370656e64206974000000000000000000000000000000000000604082015250565b7f546865206465706f736974206973207061757365640000000000000000000000600082015250565b7f546f6b656e20436170736120616464726573732063616e6e6f7420626520307860008201527f302e000000000000000000000000000000000000000000000000000000000000602082015250565b7f596f7520646f6e2774206861766520726f6c6520746f2074616b652066656500600082015250565b7f546f6b656e204c444720616464726573732063616e6e6f74206265203078302e600082015250565b7f5468652077697468647261772069732070617573656400000000000000000000600082015250565b7f434150534120636f6e747261637420616464726573732063616e6e6f7420626560008201527f203078302e000000000000000000000000000000000000000000000000000000602082015250565b7f4f776e61626c653a2063616c6c6572206973206e6f7420746865206f776e6572600082015250565b7f54686520636f6e747261637420686173206e6f7420616c6c6f77656420656e6f60008201527f75676820434150534120546f6b656e206f6e2074686520636f6e74726163742060208201527f746f207370656e64206974000000000000000000000000000000000000000000604082015250565b7f55534420546f6b656e20616464726573732063616e6e6f74206265203078302e600082015250565b7f596f75206e65656420746f206861766520656e6f7567682055534420696e207960008201527f6f75722062616c616e6365000000000000000000000000000000000000000000602082015250565b7f416363657373436f6e74726f6c3a206163636f756e7420000000000000000000600082015250565b7f206973206d697373696e6720726f6c6520000000000000000000000000000000600082015250565b7f416363657373436f6e74726f6c3a2063616e206f6e6c792072656e6f756e636560008201527f20726f6c657320666f722073656c660000000000000000000000000000000000602082015250565b7f596f75206e65656420746f20617070726f76652055534420746f20746865206360008201527f6f6e747261637400000000000000000000000000000000000000000000000000602082015250565b6146d681613f24565b81146146e157600080fd5b50565b6146ed81613f36565b81146146f857600080fd5b50565b61470481613f42565b811461470f57600080fd5b50565b61471b81613f4c565b811461472657600080fd5b50565b61473281613f98565b811461473d57600080fd5b50565b61474981613fa2565b811461475457600080fd5b5056fea2646970667358221220c180fa1efee92fe64df106045a4fc6b7a61f7ba9aaaa344737d9dbc2b19e10a964736f6c63430008040033",
  "linkReferences": {},
  "deployedLinkReferences": {}
}